:10000000002000100D010000D5000000D900000004
:1000100000000000000000000000000000000000E0
:10002000000000000000000000000000DD000000F3
:100030000000000000000000E1000000E5000000FA
:100040004D0100004D0100004D0100004D01000078
:100050004D0100004D0100004D0100004D01000068
:100060004D0100004D0100004D0100004D01000058
:100070004D0100004D0100004D0100004D01000048
:10008000F90B0000E90C00004D0100004D010000DB
:100090004D0100004D0100000000000000000000C4
:1000A0004D0100004D0100004D0100000000000066
:1000B0004D0100004D0100004D0100004D01000008
:1000C0003C170000000000100800000008000010AD
:1000D0008810000000B5FEE700B5FEE700B5FEE7BA
:1000E00000B5FEE700B5FEE710B5002302E01C589E
:1000F000043310C19342FAD310BD00B5002302E0CF
:10010000002204C004338B42FAD300BD10B50C4C5E
:1001100005E020686168A2680C34FFF7E5FF094B31
:100120009C42F6D304E0206861680834FFF7E5FFDD
:10013000054B9C42F7D301F02FFA01F065FAFEE778
:10014000C0000000CC000000D400000000B5FEE7B5
:10015000FFFFFFFFFFFFFFFFFFFFFFFFFFFFFFFFAF
:10016000FFFFFFFFFFFFFFFFFFFFFFFFFFFFFFFF9F
:10017000FFFFFFFFFFFFFFFFFFFFFFFFFFFFFFFF8F
:10018000FFFFFFFFFFFFFFFFFFFFFFFFFFFFFFFF7F
:10019000FFFFFFFFFFFFFFFFFFFFFFFFFFFFFFFF6F
:1001A000FFFFFFFFFFFFFFFFFFFFFFFFFFFFFFFF5F
:1001B000FFFFFFFFFFFFFFFFFFFFFFFFFFFFFFFF4F
:1001C000FFFFFFFFFFFFFFFFFFFFFFFFFFFFFFFF3F
:1001D000FFFFFFFFFFFFFFFFFFFFFFFFFFFFFFFF2F
:1001E000FFFFFFFFFFFFFFFFFFFFFFFFFFFFFFFF1F
:1001F000FFFFFFFFFFFFFFFFFFFFFFFFFFFFFFFF0F
:10020000FFFFFFFFFFFFFFFFFFFFFFFFFFFFFFFFFE
:10021000FFFFFFFFFFFFFFFFFFFFFFFFFFFFFFFFEE
:10022000FFFFFFFFFFFFFFFFFFFFFFFFFFFFFFFFDE
:10023000FFFFFFFFFFFFFFFFFFFFFFFFFFFFFFFFCE
:10024000FFFFFFFFFFFFFFFFFFFFFFFFFFFFFFFFBE
:10025000FFFFFFFFFFFFFFFFFFFFFFFFFFFFFFFFAE
:10026000FFFFFFFFFFFFFFFFFFFFFFFFFFFFFFFF9E
:10027000FFFFFFFFFFFFFFFFFFFFFFFFFFFFFFFF8E
:10028000FFFFFFFFFFFFFFFFFFFFFFFFFFFFFFFF7E
:10029000FFFFFFFFFFFFFFFFFFFFFFFFFFFFFFFF6E
:1002A000FFFFFFFFFFFFFFFFFFFFFFFFFFFFFFFF5E
:1002B000FFFFFFFFFFFFFFFFFFFFFFFFFFFFFFFF4E
:1002C000FFFFFFFFFFFFFFFFFFFFFFFFFFFFFFFF3E
:1002D000FFFFFFFFFFFFFFFFFFFFFFFFFFFFFFFF2E
:1002E000FFFFFFFFFFFFFFFFFFFFFFFFFFFFFFFF1E
:1002F000FFFFFFFFFFFFFFFFFFFFFFFF78563412F6
:1003000010B588B0041C18492022684601F080F915
:10031000002000F02FFB23786A46137163780020D9
:100320005371A37820219371E3788024D37100F076
:10033000FCFA64016A46201C022100F0D2FA6A46E7
:100340001378FF2B02D15378FF2B02D0201C00F032
:1003500011FB064B9C4203D080235B01E418E9E7C4
:1003600008B0002010BDC046C816000000F01F00F5
:1003700037B5040B240301AD201C02212A1C00F018
:10038000B0FA2B78FF2B04D16B78FF2B01D1201C06
:100390003EBD80235B01E418EDE70000F0B585B0B9
:1003A00001900E1C44E0254C254F2068FF22331895
:1003B00007409343234DBB420AD1311C019A00F000
:1003C000B4FA2368F31823602B68F6182E6031E026
:1003D0003F1A0137FF37391C019A00F0A6FA2B6843
:1003E0002068FB182B60019BF61BDB193F1801935B
:1003F0003B1C43401B0B002B19D0FFF7B9FF03AD8B
:10040000030B071C2B70030D20686B70000B00039F
:10041000023002212A1C00F088FA55232B70343B4D
:10042000381C6B7002212A1C00F07FFA0437276009
:10043000002EB8D105B00120F0BDC046100000105C
:1004400000FFFF0F1400001007B5064B04211B68C6
:1004500001AA0193044B1868043000F066FA0120E9
:100460000EBDC046140000100C00001013B501AC06
:10047000000B00030421221C00F033FA2378002033
:10048000552B0AD1E078A37800051B03034A1843D3
:10049000002382425B415B42184016BDFFEFFF0F15
:1004A000F0B58BB0021C01900C1CD20702D5394B61
:1004B00000221A60374DFE2328681B010205120D29
:1004C0009A4229D1FFF7D2FF2860002824D1019B4E
:1004D00002273B401BD0FFF74BFF6A46030B061C6D
:1004E0001372030D28685372000B0003C019391CE6
:1004F00002AA00F01AFA6A4655231372543B53724B
:100500002E60301C391C02AA00F00FFA04E02022F1
:100510002A602376181C3AE01E4D02AA2868202182
:100520002030286000F0DDF96A46137A019A022033
:10053000104004D0FF2BBDD12376286827E0FF2B85
:1005400001D1237623E0552BB4D16A46537A237622
:1005500002AA13181B7A235401301028F8D1039BE8
:100560006A462361538909AA1B0304336361137824
:10057000252263766A4413782622A3766A44137888
:100580002722E3766A4413782377024B18680BB06E
:10059000F0BDC0460C000010F0B58BB001900E1CF1
:1005A00003202B49141CFFF77BFF071C0020FFF7DB
:1005B000DFFE694655230B72030B0A798B72030D1C
:1005C000CB72FF230B734B738B73CB73051C4A7277
:1005D000F73B03E002A9CA54013601333278002AFE
:1005E000F8D103E0002202A9CA540133182BF9D133
:1005F0002121E73308AA694413700B7022222321BA
:100600006A44694413700B70237809AA13706378E5
:10061000252169440B70A37826226A441370E3787D
:10062000272169440B70381C02AA202100F07DF9B3
:10063000281C02AA022100F078F9064B04351F603D
:10064000054B00201D60054B0BB01860F0BDC04687
:10065000680000100C0000101000001014000010C2
:10066000F7B5244B244A1B68126801900E1C002722
:1006700093423CD2C918914200D9D61A002734E0DF
:100680001E4C1C4D2068331843401B0B002B20D000
:10069000030B1B0380221B1A5201D218111C00925B
:1006A000019A00F01EF9009B009AFF182B68206841
:1006B0009B182B60FFF7DAFE2060002817D0019B03
:1006C00004301A1C009B2060D218009B0192F61A7D
:1006D0000BE0311C019A00F004F92368BF19F318EC
:1006E00023602B68F3182B6001E0002EC8D1381C62
:1006F000FEBDC046080000101400001010000010DD
:10070000F7B51D78082D0DD10B1C07E004781E4DA0
:10071000240264191480013B01300232002BF5D110
:100720000C1C2EE000240C2D2BD128E09D78012DEF
:1007300007D0002D02D0022D17D10BE005785D7097
:1007400013E05E78FF2736013E40077865003F02E0
:100750003E4308E0660001965D780778F0262E405B
:100760003F02019D3E43AE5201349D78013901356F
:10077000EDB29D70022D01D900259D700130002938
:10078000D4D1201CFEBDC0460080FFFF37B5041C3D
:1007900001AD04202A1C011C00F0A3F82B78237063
:1007A0006B786370AB78A370EB78E37000232371F0
:1007B000637137BD30B5224B04215A6858180A437B
:1007C0005A60C16F8022D2020A43C2679C33022260
:1007D0001A601C4B0721DC6D8C43DC65DC6D144317
:1007E000DC651C1C8C3425688D4325602568154309
:1007F00025609C6A40258C439C629C6A14439C62E1
:10080000C46F2C43C46798688843986080210E4B5E
:1008100009025C58012004435C500C495C58204399
:1008200058500B4B0B4919601A619968996899687F
:10083000996899689968996899685A6030BDC04606
:10084000008004400040044000000250FC3F0000D3
:10085000008005400701000000B5074B1222D9684F
:100860000A40022AF9D19860DA68D106FCD4024B1A
:100870009868C0B200BDC0460080054000B5064A79
:10088000064B0121002802D0D058014302E0D05885
:100890008843011CD15000BD00000250FC3F000005
:1008A00008B50020FFF7EAFF0620FFF7D5FF01207B
:1008B000FFF7E4FF08BD10B50020FFF7DFFF0520BC
:1008C000FFF7CAFFFF20FFF7C7FF041C0120FFF757
:1008D000D5FF201C10BD08B5FFF7EDFFC307FBD403
:1008E00008BD70B5041C0D1C161CFFF7F4FF00209A
:1008F000FFF7C4FF0320FFF7AFFF200CC0B2FFF7E4
:10090000ABFF200AC0B2FFF7A7FFE0B2FFF7A4FFDA
:10091000002404E0FF20FFF79FFF30550134AC4274
:10092000F8D30120FFF7AAFF70BD70B5041C0D1CA1
:10093000161CFFF7D0FFFFF7B3FF0020FFF79EFF65
:100940000220FFF789FF200CC0B2FFF785FF200AC5
:10095000C0B2FFF781FFE0B2FFF77EFF002403E0A3
:10096000305DFFF779FF0134AC42F9D30120FFF786
:1009700085FF70BD10B5041CFFF7ADFFFFF790FFBA
:100980000020FFF77BFF2020FFF766FF200CC0B29E
:10099000FFF762FF200AC0B2FFF75EFFE0B2FFF789
:1009A0005BFF0120FFF76AFF10BD38B50020FFF79D
:1009B00065FF9020FFF750FF0020FFF74DFF00205C
:1009C000FFF74AFF0020FFF747FFFF20FFF744FF34
:1009D000041CFF20FFF740FF2402051C2D190120F5
:1009E000FFF74CFFA8B238BD70B5061C0020FFF71A
:1009F00045FF4B20FFF730FFFF20FFF72DFFFF20C3
:100A0000FFF72AFFFF20FFF727FFFF20FFF724FF54
:100A1000341C0125FF20FFF71FFF0309DBB2092B60
:100A200001D9373300E0303323700F2318400928F1
:100A300001D9373000E03030023560700234112DBA
:100A4000E8D1002333740120FFF718FF70BD0000C8
:100A50000D4B8021DA6F0A43DA670C4B7E395A68F6
:100A60000A430B495A6000225A60DA6099610321F7
:100A700059611A675A6802390A435A60054B802245
:100A800052021A607047C0460480044000C0004013
:100A90003F04000000E100E070B5124A031C126838
:100AA000012A0DD110480268041C101E05D016E062
:100AB0009E5A0E4D0130AE5202328842F8DB0CE0F5
:100AC0000B480268041C101E05D008E09E5A094D10
:100AD0000130AE5202328842F8DB216000E0002192
:100AE000081C70BD000000101C0000108C080010D5
:100AF000180000108C00001000B5054B1B68012B7E
:100B000001D1044B00E0044B18684342584100BD3A
:100B1000000000101C0000101800001030B51B4B26
:100B200000221A658021A032D20509025458802083
:100B3000044354501649545820435050154A01213B
:100B40005068802408435060101DC56F24012C4359
:100B5000C467022290300260586E0724A043586692
:100B6000586E01435966191CB0310A60DA640A49AB
:100B70000A4B19601A619968996899689968996827
:100B80009968996899685A6030BDC0460040044031
:100B9000FC3F00000080044007010000000004400A
:100BA000014B98607047C0460000044038B5104CB7
:100BB000A023DB051A5980218A43802109024518A8
:100BC0002804800E1A51AD10FFF7EAFFE8B2FFF7D4
:100BD000E7FF084BDA68D106FBD4DB685A07F8D583
:100BE000A023DB051A5980210A431A5138BDC0469B
:100BF000FC3F00000000044070B5204B01211A6842
:100C00000A4239D01E4C19602368002B0BD01D4BB3
:100C10001D491A6809685000405A01321A6000B232
:100C2000FFF7C4FF21E0194A106801280AD11849CA
:100C3000086800281DD0134D13602B600B602060E6
:100C4000144B09E014480668002E12D00D4D0360C5
:100C50002B60124B116026600B4A13600022985ED5
:100C6000FFF7A4FF2B6801332B602368013B23604F
:100C700002E08020FFF79AFF70BDC04600C0004030
:100C80002000001024000010880000100000001058
:100C90001C0000108C080010180000108C000010C0
:100CA0000D4B8022D96F52000A43DA670B4B0221A9
:100CB0005A680A435A602D3100225A60D9600849A7
:100CC0009961032159611A6701325A60054B7F32DD
:100CD00092021A607047C046048004400000014040
:100CE000E703000000E100E000B5374B012219687E
:100CF000114268D01A60354B196801391960002912
:100D00004DD178311960324BD96858689140D9601B
:100D1000322801DD0A43DA600022D9685A600732BE
:100D20000A40012A02D11A78022109E0062A02D1DA
:100D30001A78042104E0072A04D179321978524242
:100D40000A4304E0002A03D119787F320A401A705E
:100D5000204BDA6859685200DA60322902DD01213D
:100D60000A43DA600022D9685A6007320A40012A31
:100D700002D11A78022109E0062A02D11A78042148
:100D800004E0072A04D17932197852420A4304E078
:100D9000002A0DD119787F320A401A7008E00E4BF4
:100DA0000E4AD3585A0603D5094B5A6801325A6085
:100DB0000B4B1A68013A1A60002A04D132321A60C9
:100DC000084B313A1A7000BD000001404C00001081
:100DD0002800001038000010FC3F00000000025006
:100DE0005000001054000010F0B5174E2027331C9F
:100DF000AC331F608021154B09025A5808208243EA
:100E00005A50134A7F25107804242840A043033CFD
:100E1000A04301340023A043107093605360D3605B
:100E20000C4A37605658FF19BE4356500A4A0420F0
:100E3000117893600D40854301218D43A5431570C2
:100E40005360D360F0BDC046004004400000035032
:100E500028000010000002503800001010B50F4BA1
:100E60008E2292009958041C1020814399501A1D1B
:100E7000D06F802189010143D167094A01211160A6
:100E8000996F084B186800F0C7FB211C00F0C4FBE9
:100E9000054B01380002186010BDC04600800440B8
:100EA000984004400400001000C0014000B5072233
:100EB000002382425B415B4218400E4BFF211A68BF
:100EC0008A431A601968802252040A430121814032
:100ED0000A431A60084A801880000268002AFCDA77
:100EE00018680649014019600020530001D412041B
:100EF000900D00BD00C0014004700010FFFFFFF81E
:100F00000F4B80211A1DD06F09020143D1678E2239
:100F1000920098580121884398501A1CD032002022
:100F20001060506051600748074AD833506019601C
:100F300003231360A7339360553B93607047C0460B
:100F400000800440B0710B0000400040024BAA2218
:100F50009A60553A9A60704700400040F0B5CC4C1A
:100F6000DC20A5440001CB490622684400F050FB78
:100F7000FFF7C6FFC84B0A211960C84DC84B19229C
:100F80001A60C84C6D440827002667322F70AE7077
:100F9000BA40A15820231943C348A15022589A436C
:100FA0002250FFF721FFC148FFF758FFFFF7B6FDBA
:100FB000FFF74EFDFFF7FEFBBD4800F0A7F9FFF776
:100FC0006FFEFFF7F2FCDC2000016844FFF7DEFB58
:100FD0000A212F70AE7002960191271C01E00F22AA
:100FE0000192B44B1A6801321A60FFF7AFFFB24C9E
:100FF0007D222378934348D00720FFF757FF2378BB
:10100000022293432370A54BAC4C6B446C440A32D0
:1010100000251A709D70211C0120FFF741FA211C48
:10102000281CFFF73DFA2269A54BA6481A606269A1
:10103000A54B80211A60A54B68441D604900FFF74D
:101040000FFB041C984820223B5813433B501AE0E6
:101050009C48FA2149006844FFF702FB8F4B041CAF
:101060009848211C684405AA6B44FFF749FB051CFE
:1010700001E0FFF76BFFFFF73FFD0128F9D105A85D
:10108000291CFFF709FD002CE2D1914C91496C44D9
:10109000201C694400F098F9C5B2242D06D18D4A70
:1010A000201C6A441168FFF779F9D1E0082D53D16B
:1010B000894900226944894800F042FA8649021CA5
:1010C0006944874800F03CFADC26864C36016C44C3
:1010D0006E4403903078211C00F040FA2F2382499F
:1010E000A3707078694400F039FA3223A3712F207D
:1010F000023B7E49E3716071B078694400F02EFADA
:1011000020237B49A372F078694400F027FA682312
:1011100071496373683BA3736944039A201C00F010
:101120000FFA6D49021C6944724800F009FA061C66
:10113000201CFFF759FC6849321C69446E4800F0D6
:10114000FFF96549421E6944201C00F0F9F9624923
:10115000021C6944281C79E0A02D29D15D4969440D
:101160000B68062B74D12378A02B71D16378AA2B3E
:101170006ED1DC231B016B441A781F2A04D85A78DD
:101180000C2A01D8002A09D1514A6A449178197071
:10119000D1785970117999705279DA70DC20000198
:1011A0006844FFF7ADF84749A0206944087040E063
:1011B000122D24D1474A6A441368082B48D123785A
:1011C000122B45D1A279E3791202141C1C4380230F
:1011D0005B009C4200D91C1C3D4B211C6B44D87801
:1011E0001A790004120210435B79364A18436A44A4
:1011F000FFF777FB334912206944221C26E0202D9B
:101200000FD13E4AA3786A441370E3783C49537087
:101210002379694493706379D3702078FFF7BCF920
:1012200003E02F2D07D1FFF70FF92649281C694449
:101230000D7001220AE02A2D0AD132492078694432
:10124000FFF72EF92F49281C6944192200F04AF9AA
:101250002D4A1378012B00D0C3E600211170019AAA
:10126000013AD2B201928A4200D0BAE60298202214
:10127000012806D10C497B5893437B50019A029276
:10128000ADE6094839580A433A500293A7E6C046EA
:101290002CF2FFFFE816000050000010CC0D0000FB
:1012A0004C00001000000150FC3F0000009F240093
:1012B000572904004800001028000010640D0000A9
:1012C00014000010E40700001000001008000010D7
:1012D000E40B0000C80D0000E40C0000EE16000056
:1012E00000170000A40D0000A70D0000AC0D0000C9
:1012F000AF0D00001817000037170000B80D0000F0
:10130000EA0B0000840D00005400001070B5224B61
:1013100080229203DA67214B07251A68061CAA432C
:101320001A601968012211431960196810200143DD
:10133000196059681A4CA94359605968114359609A
:10134000184B8021D86F49010143D96794331A6043
:101350008232E260144A1968983B9B6F10685843C8
:1013600000F05AF9311C000900F056F9030A6360D5
:10137000FF231840FC3B2060E360A560636962695D
:1013800060231340602BFAD101E0054B1B686369B1
:10139000DA07FAD470BDC04604E100E0A44004407E
:1013A000008000400480044004000010024B586993
:1013B000012318407047C04600800040014B186868
:1013C000C0B270470080004038B500230B60051C98
:1013D0000C1CFFF7EBFF394B021E65D0384A1A6030
:1013E0005DE0FFF7EBFF374A031C10780628F8D8BA
:1013F00000F062F9040E14192A3C4200324A3E2BD6
:1014000038D11178432935D12E490120087031E0B7
:101410002E490B70002B2DD002232BE02C491B02F0
:101420000B80032326E02A49088803439BB20B80E4
:10143000002B01D0042300E005231370254A00236C
:101440001380254A13802AE023490A88AB540132CD
:1014500092B20A801F4908881B180B801C4B1B88FE
:1014600093421CD1174B05221A7018E01B491B022E
:101470000B800623137012E01849088803431848AC
:1014800043409BB20B8000211170124A12889A428D
:1014900011D10F4B1B8823600C4B18780DE0FFF720
:1014A00085FF00289DD108E01868002805D0013884
:1014B0001860101C01E00120404238BD640000109B
:1014C00040420F00560000105C0000105500001054
:1014D0005A00001058000010600000105E0000105C
:1014E00055AAFFFF70B5144B43241C60053C1C60DB
:1014F00018601012C0B21860D0B21860181C43698E
:101500009C06FCD5141E0ED000231C1CCD5C05606F
:10151000CD5C01336419A4B25D0702D14569AE0602
:10152000FCD59342F2D1054B5C40A4B2230AE4B24D
:101530000360046070BDC0460080004055AAFFFFF4
:1015400010B5031C8918101C02E00C700133013126
:101550001C780130002CF8D10C7010BD00B50023B0
:1015600003E001336438DBB2C0B26328F9D8002B42
:1015700002D030330B700123002203E001320A381D
:10158000D2B2C0B20928F9D83032CA54303001334F
:10159000C854581C00BD000010B5194B00221A6237
:1015A000C0460132C82AFBD10021C73A19645A64E7
:1015B00059645A64596C124AC807FBD523219160BB
:1015C0006B31890050588024A0435050D8680121C5
:1015D0000B4A0842FAD0032010670338516750675E
:1015E0005167596F01221142FBD0054B05499A679B
:1015F0000433D96790331A605A609A6010BDC046B0
:10160000008004405F00010008B5FFF7A7FC08BD9B
:1016100008B500F03BF808BD002931D00122D207FF
:10162000030901E0090112099942FBD9430801E0CD
:10163000490052089942FBD900E04908401A07D3F3
:101640005241FAD301461046704749084018F7D274
:101650009218FAD34018014610467047CB0F00D0BD
:101660004942021000D54042534008B5FFF7D4FF6D
:101670000CBC521000D34042002A00D54942184702
:10168000F446002000F001F8604770478446830765
:1016900008D18B0706D1131F04D304C904C0043B2F
:1016A000FBD21A1D524205D0891A801A8B5C8354D2
:1016B0000132FBD1604670478C4671460139095CA6
:1016C00049008E44614670475501FFFFFFFFFFFF51
:1016D0004C656D69612020204244534731203039E8
:1016E0003531303535303436FFFFFFFFFFFF4841DD
:1016F00052443A20424453473120526576204300F9
:10170000534F46543A2076312E302E312030312F2F
:1017100030332F3230313300573235513136205784
:10172000696E64626F6E642031364D622053504999
:0C17300020466C6173680049442000FFF3
:08173C0001000000006CDC025A
:040000030000010DEB
:00000001FF
