:10000000002000100D010000D5000000D900000004
:1000100000000000000000000000000000000000E0
:10002000000000000000000000000000DD000000F3
:100030000000000000000000E1000000E5000000FA
:100040004D0100004D0100004D0100004D01000078
:100050004D0100004D0100004D0100004D01000068
:100060004D0100004D0100004D0100004D01000058
:100070004D0100004D0100004D0100004D01000048
:100080000D0C0000550E00004D0100004D01000058
:100090004D0100004D0100000000000000000000C4
:1000A0004D010000150D0000FD0C000000000000D7
:1000B0004D0100004D0100004D0100004D01000008
:1000C000E01B000000000010080000000800001005
:1000D0000811000000B5FEE700B5FEE700B5FEE739
:1000E00000B5FEE700B5FEE710B5002302E01C589E
:1000F000043310C19342FAD310BD00B5002302E0CF
:10010000002204C004338B42FAD300BD10B50C4C5E
:1001100005E020686168A2680C34FFF7E5FF094B31
:100120009C42F6D304E0206861680834FFF7E5FFDD
:10013000054B9C42F7D301F053FC01F08DFCFEE728
:10014000C0000000CC000000D400000000B5FEE7B5
:10015000FFFFFFFFFFFFFFFFFFFFFFFFFFFFFFFFAF
:10016000FFFFFFFFFFFFFFFFFFFFFFFFFFFFFFFF9F
:10017000FFFFFFFFFFFFFFFFFFFFFFFFFFFFFFFF8F
:10018000FFFFFFFFFFFFFFFFFFFFFFFFFFFFFFFF7F
:10019000FFFFFFFFFFFFFFFFFFFFFFFFFFFFFFFF6F
:1001A000FFFFFFFFFFFFFFFFFFFFFFFFFFFFFFFF5F
:1001B000FFFFFFFFFFFFFFFFFFFFFFFFFFFFFFFF4F
:1001C000FFFFFFFFFFFFFFFFFFFFFFFFFFFFFFFF3F
:1001D000FFFFFFFFFFFFFFFFFFFFFFFFFFFFFFFF2F
:1001E000FFFFFFFFFFFFFFFFFFFFFFFFFFFFFFFF1F
:1001F000FFFFFFFFFFFFFFFFFFFFFFFFFFFFFFFF0F
:10020000FFFFFFFFFFFFFFFFFFFFFFFFFFFFFFFFFE
:10021000FFFFFFFFFFFFFFFFFFFFFFFFFFFFFFFFEE
:10022000FFFFFFFFFFFFFFFFFFFFFFFFFFFFFFFFDE
:10023000FFFFFFFFFFFFFFFFFFFFFFFFFFFFFFFFCE
:10024000FFFFFFFFFFFFFFFFFFFFFFFFFFFFFFFFBE
:10025000FFFFFFFFFFFFFFFFFFFFFFFFFFFFFFFFAE
:10026000FFFFFFFFFFFFFFFFFFFFFFFFFFFFFFFF9E
:10027000FFFFFFFFFFFFFFFFFFFFFFFFFFFFFFFF8E
:10028000FFFFFFFFFFFFFFFFFFFFFFFFFFFFFFFF7E
:10029000FFFFFFFFFFFFFFFFFFFFFFFFFFFFFFFF6E
:1002A000FFFFFFFFFFFFFFFFFFFFFFFFFFFFFFFF5E
:1002B000FFFFFFFFFFFFFFFFFFFFFFFFFFFFFFFF4E
:1002C000FFFFFFFFFFFFFFFFFFFFFFFFFFFFFFFF3E
:1002D000FFFFFFFFFFFFFFFFFFFFFFFFFFFFFFFF2E
:1002E000FFFFFFFFFFFFFFFFFFFFFFFFFFFFFFFF1E
:1002F000FFFFFFFFFFFFFFFFFFFFFFFF78563412F6
:1003000010B588B0041C1A492022684601F0A0FBF1
:10031000002000F039FB23786A46137163780020CF
:100320005371A37820219371E3788024D37100F076
:1003300006FB64016A46201C022100F0DCFA6A46D2
:100340001378FF2B02D15378FF2B07D0094BAA2239
:100350009A60553A9A60201C00F016FB064B9C42AE
:1003600003D080235B01E418E4E708B0002010BD4F
:10037000161B00000040004000F07F0037B5040B62
:10038000240301AD201C02212A1C00F0B4FA2B78B2
:10039000FF2B04D16B78FF2B01D1201C3EBD8023A5
:1003A0005B01E418EDE70000F0B585B001900E1C8C
:1003B00044E0254C254F2068FF2233180740934323
:1003C000234DBB420AD1311C019A00F0B8FA2368D0
:1003D000F31823602B68F6182E6031E03F1A0137BE
:1003E000FF37391C019A00F0AAFA2B682068FB1825
:1003F0002B60019BF61BDB193F1801933B1C43400C
:100400001B0B002B19D0FFF7B9FF03AD030B071C23
:100410002B70030D20686B70000B0003023002216B
:100420002A1C00F08CFA55232B70343B381C6B705F
:1004300002212A1C00F083FA04372760002EB8D16D
:1004400005B00120F0BDC0461000001000FFFF0FF6
:100450001400001007B5064B04211B6801AA019384
:10046000044B1868043000F06AFA01200EBDC04643
:10047000140000100C00001013B501AC000B0003B9
:100480000421221C00F037FA23780020552B0AD1D2
:10049000E078A37800051B03034A18430023824237
:1004A0005B415B42184016BDFFEFFF0FF0B58BB00C
:1004B000021C01900C1CD20702D5394B00221A6095
:1004C000374DFE2328681B010205120D9A4229D1DF
:1004D000FFF7D2FF2860002824D1019B02273B4070
:1004E0001BD0FFF74BFF6A46030B061C1372030D6C
:1004F00028685372000B0003C019391C02AA00F0CF
:100500001EFA6A4655231372543B53722E60301CF8
:10051000391C02AA00F013FA04E020222A60237694
:10052000181C3AE01E4D02AA2868202120302860BD
:1005300000F0E1F96A46137A019A0220104004D0D3
:10054000FF2BBDD12376286827E0FF2B01D123762E
:1005500023E0552BB4D16A46537A237602AA1318A6
:100560001B7A235401301028F8D1039B6A4623617B
:10057000538909AA1B030433636113782522637628
:100580006A4413782622A3766A4413782722E376F6
:100590006A4413782377024B18680BB0F0BDC0464D
:1005A0000C000010F0B58BB001900E1C03202B49FD
:1005B000141CFFF77BFF071C0020FFF7DFFE6946D6
:1005C00055230B72030B0A798B72030DCB72FF2339
:1005D0000B734B738B73CB73051C4A72F73B03E0B1
:1005E00002A9CA54013601333278002AF8D103E057
:1005F000002202A9CA540133182BF9D12121E73373
:1006000008AA694413700B70222223216A446944AA
:1006100013700B70237809AA13706378252169443D
:100620000B70A37826226A441370E378272169446B
:100630000B70381C02AA202100F081F9281C02AAA4
:10064000022100F07CF9064B04351F60054B0020A9
:100650001D60054B0BB01860F0BDC046E8000010EF
:100660000C0000101000001014000010F7B5264B0D
:10067000264A1B68126801900E1C0027934240D244
:10068000C918914200D9D61A002738E0204C1E4DD7
:100690002068331843401B0B002B24D0030B1B0393
:1006A00080221B1A5201D218111C0092019A00F0EC
:1006B00022F9009B009AFF182B6820689B182B607A
:1006C000FFF7DAFE2060002803D1104B1B682B6077
:1006D00017E0019B04301A1C009B2060D218009B7D
:1006E0000192F61A0BE0311C019A00F004F923681C
:1006F000BF19F31823602B68F3182B6001E0002E5C
:10070000C4D1381CFEBDC046080000101400001003
:1007100010000010F7B51D78082D0DD10B1C07E057
:1007200004781E4D240264191480013B013002320A
:10073000002BF5D10C1C2EE000240C2D2BD128E031
:100740009D78012D07D0002D02D0022D17D10BE08E
:1007500005785D7013E05E78FF2736013E4007782C
:1007600065003F023E4308E0660001965D78077829
:10077000F0262E403F02019D3E43AE5201349D784B
:1007800001390135EDB29D70022D01D900259D7012
:1007900001300029D4D1201CFEBDC0460080FFFFDF
:1007A00037B5041C01AD04202A1C011C00F0A3F87D
:1007B0002B7823706B786370AB78A370EB78E37061
:1007C00000232371637137BD30B5224B04215A6871
:1007D00058180A435A60C16F8022D2020A43C26786
:1007E0009C3302221A601C4B0721DC6D8C43DC65B4
:1007F000DC6D1443DC651C1C8C3425688D4325603E
:100800002568154325609C6A40258C439C629C6A40
:1008100014439C62C46F2C43C467986888439860F3
:1008200080210E4B09025C58012004435C500C49A6
:100830005C58204358500B4B0B4919601A6199685A
:1008400099689968996899689968996899685A60E7
:1008500030BDC0460080044000400440000002500B
:10086000FC3F0000008005400701000000B5074B79
:100870001222D9680A40022AF9D19860DA68D106B2
:10088000FCD4024B9868C0B200BDC0460080054051
:1008900000B5064A064B0121002802D0D05801437A
:1008A00002E0D0588843011CD15000BD0000025026
:1008B000FC3F000008B50020FFF7EAFF0620FFF725
:1008C000D5FF0120FFF7E4FF08BD10B50020FFF7BA
:1008D000DFFF0520FFF7CAFFFF20FFF7C7FF041C5B
:1008E0000120FFF7D5FF201C10BD08B5FFF7EDFF75
:1008F000C307FBD408BD70B5041C0D1C161CFFF704
:10090000F4FF0020FFF7C4FF0320FFF7AFFF200C28
:10091000C0B2FFF7ABFF200AC0B2FFF7A7FFE0B2FB
:10092000FFF7A4FF002404E0FF20FFF79FFF3055EE
:100930000134AC42F8D30120FFF7AAFF70BD70B5B7
:10094000041C0D1C161CFFF7D0FFFFF7B3FF00209F
:10095000FFF79EFF0220FFF789FF200CC0B2FFF7D0
:1009600085FF200AC0B2FFF781FFE0B2FFF77EFFEC
:10097000002403E0305DFFF779FF0134AC42F9D386
:100980000120FFF785FF70BD10B5041CFFF7ADFF18
:10099000FFF790FF0020FFF77BFF2020FFF766FFA7
:1009A000200CC0B2FFF762FF200AC0B2FFF75EFF63
:1009B000E0B2FFF75BFF0120FFF76AFF10BD38B51B
:1009C0000020FFF765FF9020FFF750FF0020FFF7A2
:1009D0004DFF0020FFF74AFF0020FFF747FFFF20F1
:1009E000FFF744FF041CFF20FFF740FF2402051C13
:1009F0002D190120FFF74CFFA8B238BD70B5061CB9
:100A00000020FFF745FF4B20FFF730FFFF20FFF7E7
:100A10002DFFFF20FFF72AFFFF20FFF727FFFF2012
:100A2000FFF724FF341C0125FF20FFF71FFF0309F8
:100A3000DBB2092B01D9373300E0303323700F23A9
:100A40001840092801D9373000E030300235607095
:100A50000234112DE8D1002333740120FFF718FF71
:100A600070BD00000D4B8021DA6F0A43DA670C4B32
:100A70007E395A680A430B495A6000225A60DA608C
:100A80009961032159611A675A6802390A435A6009
:100A9000054B802252021A607047C0460480044011
:100AA00000C000403F04000000E100E070B5124AC1
:100AB000031C1268012A0DD110480268041C101E84
:100AC00005D016E09E5A0E4D0130AE5202328842D9
:100AD000F8DB0CE00B480268041C101E05D008E08F
:100AE0009E5A094D0130AE5202328842F8DB216035
:100AF00000E00021081C70BD000000101C00001068
:100B00000C090010180000100C01001000B5054B76
:100B10001B68012B01D1044B00E0044B18684342D1
:100B2000584100BD000000101C000010180000100B
:100B300030B51B4B00221A658021A032D205090274
:100B40005458802004435450164954582043505060
:100B5000154A01215068802408435060101DC56F5C
:100B600024012C43C467022290300260586E07248F
:100B7000A0435866586E01435966191CB0310A608B
:100B8000DA640A490A4B19601A6199689968996888
:100B9000996899689968996899685A6030BDC046A3
:100BA00000400440FC3F00000080044007010000BA
:100BB00000000440014B98607047C04600000440AC
:100BC00038B5104CA023DB051A5980218A438021B7
:100BD000090245182804800E1A51AD10FFF7EAFFEC
:100BE000E8B2FFF7E7FF084BDA68D106FBD4DB6811
:100BF0005A07F8D5A023DB051A5980210A431A5158
:100C000038BDC046FC3F00000000044070B5204BDA
:100C100001211A680A4239D01E4C19602368002B42
:100C20000BD01D4B1D491A6809685000405A01320B
:100C30001A6000B2FFF7C4FF21E0194A10680128CA
:100C40000AD11849086800281DD0134D13602B6085
:100C50000B602060144B09E014480668002E12D087
:100C60000D4D03602B60124B116026600B4A136020
:100C70000022985EFFF7A4FF2B6801332B602368E6
:100C8000013B236002E08020FFF79AFF70BDC04661
:100C900000C00040200000102400001008010010D7
:100CA000000000101C0000100C09001018000010BB
:100CB0000C0100100D4B8022D96F52000A43DA67F5
:100CC0000B4B02215A680A435A602F2100225A60B6
:100CD000D96008499961032159611A6701225A6054
:100CE000054B802292021A607047C046048004407F
:100CF00000000140E703000000E100E0BFF34F8F78
:100D0000024A034BDA60BFF34F8FFEE70400FA0597
:100D100000ED00E0BFF34F8F024A034BDA60BFF3F0
:100D20004F8FFEE70400FA0500ED00E0F0B5174E26
:100D30002027331CAC331F608021154B09025A5801
:100D4000082082435A50134A7F25107804242840F3
:100D5000A0430124A04302240023A0431070936009
:100D60005360D3600C4A376056584027BE435650F4
:100D70000A4A0420117893600D40854301218D4378
:100D8000A54315705360D360F0BDC04600400440D9
:100D9000000003507800001000000250880000108E
:100DA00038B5134C8E239B00E25810218A43E25041
:100DB000231DD96F802292010A43DA670D4B01226D
:100DC000191C98310A6004390A60191DCA67DA676C
:100DD0009A675A67084B051CA16F186800F043FE1C
:100DE000291C00F040FE054B01380002186038BD98
:100DF00000800440004004400400001000C0014096
:100E00000722002382425B415B4218400E4BFF21C8
:100E10001A688A431A601968802252040A43012121
:100E200081400A431A60094A800080180268002A3B
:100E3000FCDA18680649014019600020530001D40B
:100E40001204900D7047C04600C0014010C0014020
:100E5000FFFFFFF8C44B0122196810B5114200D101
:100E6000D1E11A60C14B196801391960002900D01D
:100E700026E178211960BE4BD86841005868D960D6
:100E8000322801DD0A43DA600022D9685A6007225D
:100E90000A40012A02D11A78022109E0062A02D169
:100EA0001A78042104E0072A04D1802219785242DA
:100EB0000A4304E0002A03D119787F220A401A70FD
:100EC000AC4BD86859684200DA60322902DD012152
:100ED0000A43DA600022D9685A6007220A40012AD0
:100EE00002D11A78022109E0062A02D11A780421D7
:100EF00004E0072A04D18022197852420A4304E010
:100F0000002A03D119787F220A401A709A4BD868B8
:100F100059684200DA600F2902DD01210A43DA60D4
:100F20000022D9685A6007220A40012A02D11A78A1
:100F3000022104E0072A04D18022197852420A4390
:100F400004E0002A03D119787F220A401A708B4BE3
:100F5000D86859684200DA600F2902DD01210A438E
:100F6000DA600022D9685A6007220A40012A02D1B9
:100F70001A78022104E0072A04D18022197852420B
:100F80000A4304E0002A03D119787F220A401A702C
:100F90007B4BD86859684200DA600F2902DD0121D5
:100FA0000A43DA600022D9685A6007220A40012AFF
:100FB00002D11A78022104E0072A04D1802219788C
:100FC00052420A4304E0002A03D119787F220A40E2
:100FD0001A706C4BD86859684200DA600F2902DD3C
:100FE00001210A43DA600022D9685A6007220A40C8
:100FF000012A02D11A78022104E0072A04D18022B2
:10100000197852420A4304E0002A03D119787F225A
:101010000A401A705C4BD86859684200DA600F29A0
:1010200002DD01210A43DA600022D9685A600722F2
:101030000A40012A03D11A7802210A431A70534B3D
:10104000D86859684200DA600F2902DD01210A439D
:10105000DA600022D9685A6007220A40012A03D1C7
:101060001A7802210A431A70494BD868596842001D
:10107000DA600F2902DD01210A43DA600022D96813
:101080005A6007220A40012A03D11A7802210A4332
:101090001A70404BD86859684200DA600F2902DDA7
:1010A00001210A43DA600022D9685A6007220A4007
:1010B000012A00D09BE01A7802210A431A7096E0B8
:1010C000354B364AD1581A1C0B0703D5284B5968A3
:1010D00001315960324B9B58580603D5254B5A684D
:1010E00001325A600320FFF78BFE2E4C80B2A042E3
:1010F00012D81A23FF33984204D81F4B5A68013282
:101100005A6005E0A023FF33984201D81A4B00E053
:101110001D4B5A6801325A600220FFF771FE80B2FF
:10112000A04212D81A23FF33984204D8134B5A68AE
:1011300001325A6005E0A023FF33984201D80F4BDB
:1011400000E0124B5A6801325A600120FFF758FE46
:1011500080B2A04232D81A23FF33984224D8084BD9
:101160005A6801325A6025E0000001409C000010DE
:101170007800001088000010A8000010B8000010CF
:10118000C80000106800001028000010380000108F
:101190004800001058000010FC3F00000000035001
:1011A00000000250FF020000A023FF33984201D844
:1011B000154B00E0154B5A6801325A600020FFF7CA
:1011C0001FFE80B2A04212D81A23FF33984204D8DF
:1011D0000F4B5A6801325A6005E0A023FF33984252
:1011E00001D80B4B00E00B4B5A6801325A600A4B96
:1011F0001A68013A002A01D01A6004E032221A600B
:10120000064B01221A7010BDC800001048000010E3
:101210006800001058000010A0000010A40000108A
:101220000F4B80211A1DD06F09020143D1678E2216
:10123000920098580121884398501A1CD0320020FF
:101240001060506051600748074AD83350601960F9
:1012500003231360AA239360552393607047C0460D
:1012600000800440B0710B0000400040024BAA22F5
:101270009A6055229A60704700400040F0B5E24CF9
:10128000E249A544062209A800F0E2FBFFF7C8FFE7
:10129000FFF74EFCFFF7E6FBDD4E013EFFF7E6FFF2
:1012A000002EFAD1DB4CDC4D20272B59BB432B51B0
:1012B000FFF7B6FFD94B0A221A6068460821D84BBF
:1012C00086770177192280201A6000022B583B4351
:1012D0002B502B59BB432B51FFF728FDA023802116
:1012E000DB0509025A58CF483A435A501A593A4333
:1012F0001A51FFF755FDFFF71BFCFFF7B3FBFFF794
:1013000063FAC94800F026FAFFF7D4FCFFF757FB51
:10131000059009A8FFF744FA6A4608230A20967741
:101320000296371C049613770390261CBF4B1A684D
:1013300001321A60FFF79AFF002F02D102990029AB
:1013400063D0BB4B02221978002491431970B94B2A
:1013500001201978914319706A460C231AA9137752
:101360009477FFF7A3F8201C1AA9FFF79FF8029BB8
:10137000A34203D0201C1AA9FFF798F8AE4B1E9881
:101380001F9A1860AD4B80211A60AD4B00224900B6
:1013900082A81A60FFF76AF99F4920228B59041C22
:1013A00013438B51002C30D0FA21490082A8FFF75B
:1013B0005DF9C122041CD20082A8211C6A4407AB3B
:1013C000FFF7A8F9051CFFF751FFFFF79FFB012866
:1013D0000AD09C4B1A78012AF7D13A1C511E8A4137
:1013E000BF1A00221A70F0E7C120C0006844291C0F
:1013F000FFF75CFB002F05D1029842424241D2B276
:101400000292CFE700210291CCE7894D287880072E
:10141000C00F012863D100246A460C231AA99477CF
:101420001377FFF743F81AA9201CFFF73FF81AA912
:10143000201CFFF73BF8201C1AA9FFF737F8A7423A
:1014400003D0201C1AA9FFF731F82A780223794C1F
:101450009A432A7022781E989A43774B227018601C
:101460001F9A764B80211A60754B0022490082A892
:101470001A60FFF7FBF8684920228B59051C1343BB
:101480008B51002D1BD0FA21490082A8FFF7EEF8FE
:10149000C122051CD20082A8291C6A4407ABFFF7B1
:1014A00039F9071CFFF7E2FEFFF730FB0128FBD1FB
:1014B000C120C0006844391CFFF7F8FAE1E75C4A34
:1014C00002231178C82799431170227820219A436A
:1014D000A0232270DB059A597F000A439A5142AC3F
:1014E000201C08A900F094F9C5B2002D00D106E136
:1014F000242D04D1201C0899FEF756FFEFE0082D9B
:1015000059D122A90022504800F03EFA22A9021C1B
:101510004E4800F039FA0DAC09AD0190211C2F277F
:10152000287800F03FFAA77069463731687800F0F4
:1015300039FA3223A3713023E37167710FA9A878B8
:1015400000F030FA2023A37269463F31E87800F0BA
:1015500029FA68236373019A0023201C22A9A3732C
:1015600000F012FA3A4B021C0598984201D1394812
:101570000CE0394B0599994201D1384806E0384BC7
:101580000598984201D1374800E0374822A900F079
:10159000FBF9051C201CFFF731FA22A92A1C33484D
:1015A00000F0F2F922A9421E201C00F0EDF922A958
:1015B000021C082024E0A02D5AD1089900270629F2
:1015C00000D09CE02378A02B00D098E06378AA2B71
:1015D00000D094E009A803781F2B03D84378013B7F
:1015E0000B2B07D9A3780370E378437023798370BA
:1015F0006379C370FEF784FE82A9A02008700122DF
:1016000000F094F900277AE024F2FFFF361B000077
:1016100040420F00FC3F000000000150A0000010FD
:101620009C000010009F240060E31600980000104A
:101630007800001088000010140000101000001046
:1016400008000010A40000103C1B00004E1B00000E
:1016500014EF0000661B000015EF0000851B000062
:1016600016EF0000A41B0000C31B0000DA1B0000E3
:10167000122D1ED1089A0027082A40D12378122B58
:101680003DD1A579E3792D021D4380235B009D4266
:1016900000D91D1CE078237900041B0218436379EC
:1016A000291C184382AAFFF726F9122082A92A1CB6
:1016B000A6E7202D0FD1A3780BAA1370E378694613
:1016C000537023790F31937063792078FF31D37091
:1016D000FEF768FF03E02F2D05D1FEF7BBFE82A9C0
:1016E0000D70281C8BE700272A2D08D112A920781D
:1016F000FEF7DCFE281C12A9192200F017F9134A84
:101700001378012B00D011E6391C481E81417F1A45
:1017100000211170039A013AD2B203928A4200D09A
:1017200004E604982022012808D109498B599343E3
:101730008B51039A0F2304920393F7E504488159D0
:101740000A430F21825104930391EFE5A400001096
:101750000000015070B5224B80229203DA67214BC2
:1017600007251A68061CAA431A601968012211434A
:101770001960196810200143196059681A4CA9436F
:101780005960596811435960184B8021D86F49013D
:101790000143D96794331A608232E260144A1968AF
:1017A000983B9B6F1068584300F05DF9311C0009AD
:1017B00000F059F9030A6360FF231840FC3B2060E6
:1017C000E360A5606369626960231340602BFAD10E
:1017D00001E0054B1B686369DA07FAD470BDC046A7
:1017E00004E100E0A4400440008000400480044084
:1017F00004000010024B5869012318407047C0468E
:1018000000800040014B1868C0B270470080004063
:1018100038B500230B60051C0C1CFFF7EBFF394BA0
:10182000021E65D0384A1A605DE0FFF7EBFF374AC9
:10183000031C10780628F8D800F065F9040E141976
:101840002A3C4200324A3E2B38D11178432935D107
:101850002E490120087031E02E490B70002B2DD04D
:1018600002232BE02C491B020B80032326E02A498C
:10187000088803439BB20B80002B01D0042300E0B7
:1018800005231370254A00231380254A13802AE07C
:1018900023490A88AB54013292B20A801F49088852
:1018A0001B180B801C4B1B8893421CD1174B052225
:1018B0001A7018E01B491B020B800623137012E0FC
:1018C000184908880343184843409BB20B80002105
:1018D0001170124A12889A4211D10F4B1B88236053
:1018E0000C4B18780DE0FFF785FF00289DD108E02C
:1018F0001868002805D001381860101C01E001208C
:10190000404238BDE400001040420F00D9000010F2
:10191000DE000010D8000010DC000010DA0000101B
:10192000E2000010E000001055AAFFFF70B5144B54
:1019300043241C60053C1C6018601012C0B2186083
:10194000D0B21860181C43699C06FCD5141E0ED03A
:1019500000231C1CCD5C0560CD5C01336419A4B26E
:101960005D0702D14569AE06FCD59342F2D1054B25
:101970005C40A4B2230AE4B20360046070BDC046B8
:101980000080004055AAFFFF10B5031C8918101CE9
:1019900002E00C70013301311C780130002CF8D1C9
:1019A0000C7010BD00B5002303E001336438DBB2D6
:1019B000C0B26328F9D8002B02D030330B7001235A
:1019C000002203E001320A38D2B2C0B20928F9D8A5
:1019D0003032CA5430300133C854581C00BD0000A6
:1019E00010B5194B00221A62C0460132C82AFBD139
:1019F0000021C73A19645A6459645A64596C124AEE
:101A0000C807FBD5232191606B3189005058802491
:101A1000A0435050D86801210B4A0842FAD0032055
:101A200010670338516750675167596F012211429F
:101A3000FBD0054B05499A670433D96790331A6088
:101A40005A609A6010BDC046008004405F000100EB
:101A500008B500F042F808BD08B5FFF70FFC08BD57
:101A600003000B4321D4002931D00122D2070309FE
:101A700001E0090112099942FBD9430801E049003C
:101A800052089942FBD900E04908401A07D3524155
:101A9000FAD301461046704749084018F7D2921809
:101AA000FAD34018014610467047CB0F00D0494288
:101AB000021000D54042534008B5FFF7D4FF0CBCDC
:101AC000521000D34042002A00D549421847F4463C
:101AD000002000F001F8604770478446830708D172
:101AE0008B0706D1131F04D304C904C0043BFBD2E7
:101AF0001A1D524205D0891A801A8B5C8354013218
:101B0000FBD1604670478C4671460139095C49003B
:101B10008E44614670475501FFFFFFFFFFFF4C6594
:101B20006D696120202042445347312030393531DE
:101B3000303535303436FFFFFFFFFFFF4841524458
:101B40003A20424453473120526576204300534F98
:101B500046543A2076312E302E312030312F30331A
:101B60002F32303133005732355131362057696EBC
:101B700064626F6E642031364D62205350492046B6
:101B80006C617368005732355133322057696E6487
:101B9000626F6E642033324D622053504920466C90
:101BA000617368005732355136342057696E64626C
:101BB0006F6E642036344D622053504920466C616C
:101BC00073680053504920466C617368206E6F74CF
:101BD0002064657465637465640049442000FFFFF8
:081BE00001000000006CDC02B2
:040000030000010DEB
:00000001FF
