:10000000002000100D010000D5000000D900000004
:1000100000000000000000000000000000000000E0
:10002000000000000000000000000000DD000000F3
:100030000000000000000000E1000000E5000000FA
:100040004D0100004D0100004D0100004D01000078
:100050004D0100004D0100004D0100004D01000068
:100060004D0100004D0100004D0100004D01000058
:100070004D0100004D0100004D0100004D01000048
:100080000D0C0000510E00004D0100004D0100005C
:100090004D0100004D0100000000000000000000C4
:1000A0004D010000210D0000190D000000000000AE
:1000B0004D0100004D0100004D0100004D01000008
:1000C000F41C0000000000100800000008000010F0
:1000D0000811000000B5FEE700B5FEE700B5FEE739
:1000E00000B5FEE700B5FEE710B5002302E01C589E
:1000F000043310C19342FAD310BD00B5002302E0CF
:10010000002204C004338B42FAD300BD10B50C4C5E
:1001100005E020686168A2680C34FFF7E5FF094B31
:100120009C42F6D304E0206861680834FFF7E5FFDD
:10013000054B9C42F7D301F0E1FC01F017FDFEE70F
:10014000C0000000CC000000D400000000B5FEE7B5
:10015000FFFFFFFFFFFFFFFFFFFFFFFFFFFFFFFFAF
:10016000FFFFFFFFFFFFFFFFFFFFFFFFFFFFFFFF9F
:10017000FFFFFFFFFFFFFFFFFFFFFFFFFFFFFFFF8F
:10018000FFFFFFFFFFFFFFFFFFFFFFFFFFFFFFFF7F
:10019000FFFFFFFFFFFFFFFFFFFFFFFFFFFFFFFF6F
:1001A000FFFFFFFFFFFFFFFFFFFFFFFFFFFFFFFF5F
:1001B000FFFFFFFFFFFFFFFFFFFFFFFFFFFFFFFF4F
:1001C000FFFFFFFFFFFFFFFFFFFFFFFFFFFFFFFF3F
:1001D000FFFFFFFFFFFFFFFFFFFFFFFFFFFFFFFF2F
:1001E000FFFFFFFFFFFFFFFFFFFFFFFFFFFFFFFF1F
:1001F000FFFFFFFFFFFFFFFFFFFFFFFFFFFFFFFF0F
:10020000FFFFFFFFFFFFFFFFFFFFFFFFFFFFFFFFFE
:10021000FFFFFFFFFFFFFFFFFFFFFFFFFFFFFFFFEE
:10022000FFFFFFFFFFFFFFFFFFFFFFFFFFFFFFFFDE
:10023000FFFFFFFFFFFFFFFFFFFFFFFFFFFFFFFFCE
:10024000FFFFFFFFFFFFFFFFFFFFFFFFFFFFFFFFBE
:10025000FFFFFFFFFFFFFFFFFFFFFFFFFFFFFFFFAE
:10026000FFFFFFFFFFFFFFFFFFFFFFFFFFFFFFFF9E
:10027000FFFFFFFFFFFFFFFFFFFFFFFFFFFFFFFF8E
:10028000FFFFFFFFFFFFFFFFFFFFFFFFFFFFFFFF7E
:10029000FFFFFFFFFFFFFFFFFFFFFFFFFFFFFFFF6E
:1002A000FFFFFFFFFFFFFFFFFFFFFFFFFFFFFFFF5E
:1002B000FFFFFFFFFFFFFFFFFFFFFFFFFFFFFFFF4E
:1002C000FFFFFFFFFFFFFFFFFFFFFFFFFFFFFFFF3E
:1002D000FFFFFFFFFFFFFFFFFFFFFFFFFFFFFFFF2E
:1002E000FFFFFFFFFFFFFFFFFFFFFFFFFFFFFFFF1E
:1002F000FFFFFFFFFFFFFFFFFFFFFFFF78563412F6
:1003000010B588B0041C1A492022684601F032FC5E
:10031000002000F039FB23786A46137163780020CF
:100320005371A37820219371E3788024D37100F076
:1003300006FB64016A46201C022100F0DCFA6A46D2
:100340001378FF2B02D15378FF2B07D0094BAA2239
:100350009A60553A9A60201C00F016FB064B9C42AE
:1003600003D080235B01E418E4E708B0002010BD4F
:100370002C1C00000040004000F07F0037B5040B4B
:10038000240301AD201C02212A1C00F0B4FA2B78B2
:10039000FF2B04D16B78FF2B01D1201C3EBD8023A5
:1003A0005B01E418EDE70000F0B585B001900E1C8C
:1003B00044E0254C254F2068FF2233180740934323
:1003C000234DBB420AD1311C019A00F0B8FA2368D0
:1003D000F31823602B68F6182E6031E03F1A0137BE
:1003E000FF37391C019A00F0AAFA2B682068FB1825
:1003F0002B60019BF61BDB193F1801933B1C43400C
:100400001B0B002B19D0FFF7B9FF03AD030B071C23
:100410002B70030D20686B70000B0003023002216B
:100420002A1C00F08CFA55232B70343B381C6B705F
:1004300002212A1C00F083FA04372760002EB8D16D
:1004400005B00120F0BDC0461000001000FFFF0FF6
:100450001400001007B5064B04211B6801AA019384
:10046000044B1868043000F06AFA01200EBDC04643
:10047000140000100C00001013B501AC000B0003B9
:100480000421221C00F037FA23780020552B0AD1D2
:10049000E078A37800051B03034A18430023824237
:1004A0005B415B42184016BDFFEFFF0FF0B58BB00C
:1004B000021C01900C1CD20702D5394B00221A6095
:1004C000374DFE2328681B010205120D9A4229D1DF
:1004D000FFF7D2FF2860002824D1019B02273B4070
:1004E0001BD0FFF74BFF6A46030B061C1372030D6C
:1004F00028685372000B0003C019391C02AA00F0CF
:100500001EFA6A4655231372543B53722E60301CF8
:10051000391C02AA00F013FA04E020222A60237694
:10052000181C3AE01E4D02AA2868202120302860BD
:1005300000F0E1F96A46137A019A0220104004D0D3
:10054000FF2BBDD12376286827E0FF2B01D123762E
:1005500023E0552BB4D16A46537A237602AA1318A6
:100560001B7A235401301028F8D1039B6A4623617B
:10057000538909AA1B030433636113782522637628
:100580006A4413782622A3766A4413782722E376F6
:100590006A4413782377024B18680BB0F0BDC0464D
:1005A0000C000010F0B58BB001900E1C03202B49FD
:1005B000141CFFF77BFF071C0020FFF7DFFE6946D6
:1005C00055230B72030B0A798B72030DCB72FF2339
:1005D0000B734B738B73CB73051C4A72F73B03E0B1
:1005E00002A9CA54013601333278002AF8D103E057
:1005F000002202A9CA540133182BF9D12121E73373
:1006000008AA694413700B70222223216A446944AA
:1006100013700B70237809AA13706378252169443D
:100620000B70A37826226A441370E378272169446B
:100630000B70381C02AA202100F081F9281C02AAA4
:10064000022100F07CF9064B04351F60054B0020A9
:100650001D60054B0BB01860F0BDC046E8000010EF
:100660000C0000101000001014000010F7B5264B0D
:10067000264A1B68126801900E1C0027934240D244
:10068000C918914200D9D61A002738E0204C1E4DD7
:100690002068331843401B0B002B24D0030B1B0393
:1006A00080221B1A5201D218111C0092019A00F0EC
:1006B00022F9009B009AFF182B6820689B182B607A
:1006C000FFF7DAFE2060002803D1104B1B682B6077
:1006D00017E0019B04301A1C009B2060D218009B7D
:1006E0000192F61A0BE0311C019A00F004F923681C
:1006F000BF19F31823602B68F3182B6001E0002E5C
:10070000C4D1381CFEBDC046080000101400001003
:1007100010000010F7B51D78082D0DD10B1C07E057
:1007200004781E4D240264191480013B013002320A
:10073000002BF5D10C1C2EE000240C2D2BD128E031
:100740009D78012D07D0002D02D0022D17D10BE08E
:1007500005785D7013E05E78FF2736013E4007782C
:1007600065003F023E4308E0660001965D78077829
:10077000F0262E403F02019D3E43AE5201349D784B
:1007800001390135EDB29D70022D01D900259D7012
:1007900001300029D4D1201CFEBDC0460080FFFFDF
:1007A00037B5041C01AD04202A1C011C00F0A3F87D
:1007B0002B7823706B786370AB78A370EB78E37061
:1007C00000232371637137BD30B5224B04215A6871
:1007D00058180A435A60C16F8022D2020A43C26786
:1007E0009C3302221A601C4B0721DC6D8C43DC65B4
:1007F000DC6D1443DC651C1C8C3425688D4325603E
:100800002568154325609C6A40258C439C629C6A40
:1008100014439C62C46F2C43C467986888439860F3
:1008200080210E4B09025C58012004435C500C49A6
:100830005C58204358500B4B0B4919601A6199685A
:1008400099689968996899689968996899685A60E7
:1008500030BDC0460080044000400440000002500B
:10086000FC3F0000008005400701000000B5074B79
:100870001222D9680A40022AF9D19860DA68D106B2
:10088000FCD4024B9868C0B200BDC0460080054051
:1008900000B5064A064B0121002802D0D05801437A
:1008A00002E0D0588843011CD15000BD0000025026
:1008B000FC3F000008B50020FFF7EAFF0620FFF725
:1008C000D5FF0120FFF7E4FF08BD10B50020FFF7BA
:1008D000DFFF0520FFF7CAFFFF20FFF7C7FF041C5B
:1008E0000120FFF7D5FF201C10BD08B5FFF7EDFF75
:1008F000C307FBD408BD70B5041C0D1C161CFFF704
:10090000F4FF0020FFF7C4FF0320FFF7AFFF200C28
:10091000C0B2FFF7ABFF200AC0B2FFF7A7FFE0B2FB
:10092000FFF7A4FF002404E0FF20FFF79FFF3055EE
:100930000134AC42F8D30120FFF7AAFF70BD70B5B7
:10094000041C0D1C161CFFF7D0FFFFF7B3FF00209F
:10095000FFF79EFF0220FFF789FF200CC0B2FFF7D0
:1009600085FF200AC0B2FFF781FFE0B2FFF77EFFEC
:10097000002403E0305DFFF779FF0134AC42F9D386
:100980000120FFF785FF70BD10B5041CFFF7ADFF18
:10099000FFF790FF0020FFF77BFF2020FFF766FFA7
:1009A000200CC0B2FFF762FF200AC0B2FFF75EFF63
:1009B000E0B2FFF75BFF0120FFF76AFF10BD38B51B
:1009C0000020FFF765FF9020FFF750FF0020FFF7A2
:1009D0004DFF0020FFF74AFF0020FFF747FFFF20F1
:1009E000FFF744FF041CFF20FFF740FF2402051C13
:1009F0002D190120FFF74CFFA8B238BD70B5061CB9
:100A00000020FFF745FF4B20FFF730FFFF20FFF7E7
:100A10002DFFFF20FFF72AFFFF20FFF727FFFF2012
:100A2000FFF724FF341C0125FF20FFF71FFF0309F8
:100A3000DBB2092B01D9373300E0303323700F23A9
:100A40001840092801D9373000E030300235607095
:100A50000234112DE8D1002333740120FFF718FF71
:100A600070BD00000D4B8021DA6F0A43DA670C4B32
:100A70007E395A680A430B495A6000225A60DA608C
:100A80009961032159611A675A6802390A435A6009
:100A9000054B802252021A607047C0460480044011
:100AA00000C000403F04000000E100E070B5124AC1
:100AB000031C1268012A0DD110480268041C101E84
:100AC00005D016E09E5A0E4D0130AE5202328842D9
:100AD000F8DB0CE00B480268041C101E05D008E08F
:100AE0009E5A094D0130AE5202328842F8DB216035
:100AF00000E00021081C70BD000000101C00001068
:100B00000C090010180000100C01001000B5054B76
:100B10001B68012B01D1044B00E0044B18684342D1
:100B2000584100BD000000101C000010180000100B
:100B300030B51B4B00221A658021A032D205090274
:100B40005458802004435450164954582043505060
:100B5000154A01215068802408435060101DC56F5C
:100B600024012C43C467022290300260586E07248F
:100B7000A0435866586E01435966191CB0310A608B
:100B8000DA640A490A4B19601A6199689968996888
:100B9000996899689968996899685A6030BDC046A3
:100BA00000400440FC3F00000080044007010000BA
:100BB00000000440014B98607047C04600000440AC
:100BC00038B5104CA023DB051A5980218A438021B7
:100BD000090245182804800E1A51AD10FFF7EAFFEC
:100BE000E8B2FFF7E7FF084BDA68D106FBD4DB6811
:100BF0005A07F8D5A023DB051A5980210A431A5158
:100C000038BDC046FC3F00000000044070B5204BDA
:100C100001211A680A4239D01E4C19602368002B42
:100C20000BD01D4B1D491A6809685000405A01320B
:100C30001A6000B2FFF7C4FF21E0194A10680128CA
:100C40000AD11849086800281DD0134D13602B6085
:100C50000B602060144B09E014480668002E12D087
:100C60000D4D03602B60124B116026600B4A136020
:100C70000022985EFFF7A4FF2B6801332B602368E6
:100C8000013B236002E08020FFF79AFF70BDC04661
:100C900000C00040200000102400001008010010D7
:100CA000000000101C0000100C09001018000010BB
:100CB0000C01001000B5BFF34F8F034A034BDA60FD
:100CC000BFF34F8FFEE7C0460400FA0500ED00E0D9
:100CD0000D4B8022D96F52000A43DA670B4B022179
:100CE0005A680A435A602D3100225A60D960084977
:100CF0009961032159611A6701325A60054B7F32AD
:100D000092021A607047C04604800440000001400F
:100D1000E703000000E100E008B5FFF7CBFF08BDE6
:100D200008B5FFF7C7FF08BDF0B5174E2027331CE5
:100D3000AC331F608021154B09025A5808208243AA
:100D40005A50134A7F25107804242840A043033CBE
:100D5000A04301340023A043107093605360D3601C
:100D60000C4A37605658FF19BE4356500A4A0420B1
:100D7000117893600D40854301218D43A543157083
:100D80005360D360F0BDC0460040044000000350F3
:100D900078000010000002508800001010B51349C0
:100DA0008E239B00CA58041C10208243CA500B1D7E
:100DB000D86F802292010243DA670D4B0122181C82
:100DC0009830026004380260181DC267DA679A67BB
:100DD0005A67084B896F186800F0D0FE211C00F09C
:100DE000CDFE054B01380002186010BD00800440A4
:100DF000004004400400001000C0014000B507227C
:100E0000002382425B415B4218400E4BFF211A686F
:100E10008A431A601968802252040A4301218140E2
:100E20000A431A60084A801880000268002AFCDA27
:100E300018680649014019600020530001D41204CB
:100E4000900D00BD00C0014004700010FFFFFFF8CE
:100E500010B5B94B01221968114200D1CDE11A60D9
:100E6000B64B196801391960002900D026E17831A4
:100E70001960B34BD96858689140D960322801DDB8
:100E80000A43DA600022D9685A6007320A40012A10
:100E900002D11A78022109E0062A02D11A78042127
:100EA00004E0072A04D17932197852420A4304E057
:100EB000002A03D119787F320A401A70A14BDA68F0
:100EC00059685200DA60322902DD01210A43DA60F2
:100ED0000022D9685A6007320A40012A02D11A78E2
:100EE000022109E0062A02D11A78042104E0072A27
:100EF00004D17932197852420A4304E0002A03D11E
:100F000019787F320A401A708F4BDA68596852009C
:100F1000DA600F2902DD01210A43DA600022D96874
:100F20005A6007320A40012A02D11A78022104E0ED
:100F3000072A04D17932197852420A4304E0002A80
:100F400003D119787F320A401A70804BDA685968E9
:100F50005200DA600F2902DD01210A43DA60002223
:100F6000D9685A6007320A40012A02D11A78022150
:100F700004E0072A04D17932197852420A4304E086
:100F8000002A03D119787F320A401A70704BDA6850
:100F900059685200DA600F2902DD01210A43DA6044
:100FA0000022D9685A6007320A40012A02D11A7811
:100FB000022104E0072A04D17932197852420A4307
:100FC00004E0002A03D119787F320A401A70614B7D
:100FD000DA6859685200DA600F2902DD01210A43FC
:100FE000DA600022D9685A6007320A40012A02D129
:100FF0001A78022104E0072A04D179321978524282
:101000000A4304E0002A03D119787F320A401A709B
:10101000514BDA6859685200DA600F2902DD01216C
:101020000A43DA600022D9685A6007320A40012A6E
:1010300003D11A7802210A431A70484BDA685968BA
:101040005200DA600F2902DD01210A43DA60002232
:10105000D9685A6007320A40012A03D11A7802215E
:101060000A431A703E4BDA6859685200DA600F2959
:1010700002DD01210A43DA600022D9685A60073292
:101080000A40012A03D11A7802210A431A70354B0B
:10109000DA6859685200DA600F2902DD01210A433B
:1010A000DA600022D9685A6007320A40012A00D06B
:1010B00098E01A7802210A431A7093E02A4B2B4ACF
:1010C000D1581A1C0B0703D51D4B596801315960C3
:1010D000274B9B585A0603D51A4B5A6801325A605F
:1010E0000320FFF78BFE234C80B2A04210D8224B86
:1010F000984204D8144B5A6801325A6004E01F4BDE
:10110000984201D8104B00E0134B5A6801325A60E4
:101110000220FFF773FE80B2A04235D8164B9842EA
:1011200004D80A4B5A6801325A6029E0134B98429E
:1011300026D8064B25E0C04600000140980000106C
:101140007800001088000010A8000010B8000010FF
:10115000C8000010280000103800001048000010DF
:101160005800001068000010FC3F00000000035011
:1011700000000250FF020000190100009F01000062
:101180001E4B5A6801325A600120FFF737FE80B2C9
:10119000A04210D81A4B984204D81A4B5A68013210
:1011A0005A6004E0184B984201D8164B00E0174BE8
:1011B0005A6801325A600020FFF720FE80B2A04238
:1011C00010D80F4B984204D8114B5A6801325A601C
:1011D00004E00D4B984201D80D4B00E00D4B5A68CE
:1011E00001325A600C4B1A68013A1A60002A04D185
:1011F00032321A60094B313A1A7010BD48000010A3
:1012000019010000C80000109F01000058000010E4
:1012100028000010680000109C000010A4000010BE
:101220000F4B80211A1DD06F09020143D1678E2216
:10123000920098580121884398501A1CD0320020FF
:101240001060506051600748074AD83350601960F9
:1012500003231360A7339360553B93607047C046E8
:1012600000800440B0710B0000400040024BAA22F5
:101270009A60553A9A60704700400040F0B5C34C00
:10128000DC20A5440001C2490622684400F072FC3B
:10129000FFF7C6FFFFF74CFCFFF7E4FB0024FFF766
:1012A000E5FFBC4B01349C42F9D1BB4DBB4F202420
:1012B000EB598026A343EB51FFF7B2FFB84AB94878
:1012C00008236A44002113706844B74B01700A2058
:1012D0001860B64B19221A603602AB592343AB5142
:1012E000EB59A343EB51FFF71FFDA023DB059A59F0
:1012F000AF4822439A51DA5900261443DC51FFF7D4
:101300004DFDFFF715FCFFF7ADFBFFF75DFAA948B0
:1013100000F0AEFAFFF7DCFCFFF751FB0290DC2097
:1013200000016844FFF73CFA9E499D4B6944002246
:1013300008206B440A701870341C01960A21009131
:101340009D4B1A6801321A60FFF790FF002C6ED097
:101350009A4A7F231078051C9D432B1C002D66D1D3
:10136000022188431070964A1078884310708C4A86
:1013700094496A4493700C33694413700120FFF759
:1013800095F89049281C6944FFF790F8002E04D086
:101390008C49281C6944FFF789F88A4B8A4A6B44B8
:1013A00019698A4811605A69894B80211A60894BF2
:1013B00000221A6049006844FFF758F97749051C74
:1013C000754820224358134343502DE07F48FA21AB
:1013D00068444900FFF74AF9714B051C7B48291CFA
:1013E000684405AA6B44FFF795F9071CFFF73EFF19
:1013F00012E0794B1A78012A05D1221C511E8A412C
:10140000A41A00221A70002E06D16C4B1B78DB093F
:101410005A4253415B421D40FFF778FB0128E8D157
:1014200005A8391CFFF742FB002DCFD12E1C634BC2
:101430007D221B78934300D18FE0594B61496B4467
:101440000025713A9D701A7069440120FFF72EF84B
:101450005C49281C6944FFF729F85A49281C69444B
:10146000FFF724F85749281C6944FFF71FF8AC42DE
:1014700005D15449201C6944FFF718F803E00A2EEF
:1014800001D00136F6B24D4B022219784F489143F4
:1014900019704B4B68441978282491431970494BB3
:1014A000494A6B44196911605A69494B80211A6095
:1014B000484B00221A604900FFF7D8F8364A051C4D
:1014C000364835491358202213430B5031E03F482A
:1014D000FA2168444900FFF7C9F8314B051C3B4825
:1014E000291C684405AA6B44FFF714F9071CFFF791
:1014F000BDFE16E0002C03D0013CE4B2002C10D15C
:10150000002E09D02D4B7F221B78934304D1012E4E
:1015100004D900252C1C04E0002402E00026341C21
:10152000351CFFF7F3FA0128E4D105A8391CFFF7B1
:10153000BDFA002DCBD1214B02221978174D9143D2
:1015400019701F4BC8241978640091431970A023A7
:10155000DB055A5920210A435A51204F20496F4434
:10156000381C694400F0E2F9C5B2002D00D1FBE05F
:10157000242D37D11A4A381C6A441168FEF714FF2B
:101580001249281C69440D70C1E0C0462CF2FFFFCF
:10159000EE1C000040420F0000000150FC3F000024
:1015A000CC0D0000CE0D00009C0000109800001033
:1015B000009F240060E31600A000001078000010D7
:1015C00088000010640D000014000010E407000003
:1015D0001000001008000010A4000010E40B000030
:1015E000C80D0000082D66D1894900226944894848
:1015F00000F058FA8649021C6944874800F052FA04
:10160000DC25864C2D016C446D4403902878211C08
:1016100000F056FA2F278249A7706878694400F0D5
:101620004FFA3223A3717F49023BE3716771A878B7
:10163000694400F045FA20237B49A372E8786944A5
:1016400000F03EFA682372496373683BA373039A00
:10165000201C694400F026FA744B029D021C9D4236
:1016600001D173480CE0734B0298984201D1724843
:1016700006E0724B0299994201D1714800E071482D
:101680006349694400F00EFA041C64486844FFF79B
:10169000B5F95F49221C69446B4800F003FA5C49C4
:1016A000421E5E486944684400F0FCF95849021C37
:1016B0006944082053E0A02D2BD1644A00246A44D9
:1016C0001368062B7DD13B78A02B7AD17B78AA2B8F
:1016D00077D1DC231B016B441A781F2A04D85A786F
:1016E0000C2A01D8A24209D1594A6A44917819704A
:1016F000D1785970117999705279DA70DC20000133
:101700006844FEF7FDFD5349A0206944087001229A
:1017100025E0122D27D14D4D00246D442B68082B58
:101720004FD13B78122B4CD1BC79FB7924021C435E
:1017300080235B009C4200D91C1C454B211C6B4440
:10174000D8781A790004120210435B79414A184391
:101750006A44FFF7D0F83F4912206944221C00F088
:1017600073F900242DE00024202D11D1384B3A4A82
:101770006B4499786A441170D978517019799170D5
:101780005979D170354918786944FEF70BFF03E0A9
:101790002F2D07D1FEF75EFE2E49281C69440D70DF
:1017A00001220CE02A2D0CD1294B2D496B446944B0
:1017B0001878FEF77BFE2A49281C6944192200F09C
:1017C00043F9284A1378012B00D0B9E5211C481EA3
:1017D0008141641A00211170009A013AD2B200923C
:1017E0008A4200D0ACE501982022012807D11E4989
:1017F0001E4D4B5993434B510098019005E01A4DF3
:101800001A4829580A432A5001930F2197E5C046E8
:10181000E40C00004C1C00005E1C0000A40D000045
:10182000A70D0000AC0D0000AF0D000014EF00008C
:10183000761C000015EF0000951C000016EF00005C
:10184000B41C0000D31C0000EA1C0000C80D0000FE
:10185000E40B0000E4070000B80D0000EA0B0000F4
:10186000840D0000A400001000000150FC3F0000A7
:1018700070B5224B80229203DA67214B07251A6844
:10188000061CAA431A6019680122114319601968DD
:1018900010200143196059681A4CA94359605968CE
:1018A00011435960184B8021D86F49010143D96712
:1018B00094331A608232E260144A1968983B9B6F35
:1018C0001068584300F05AF9311C000900F056F92D
:1018D000030A6360FF231840FC3B2060E360A560BF
:1018E0006369626960231340602BFAD101E0054B04
:1018F0001B686369DA07FAD470BDC04604E100E0F2
:10190000A440044000800040048004400400001013
:10191000024B5869012318407047C04600800040C0
:10192000014B1868C0B270470080004038B50023F2
:101930000B60051C0C1CFFF7EBFF394B021E65D03A
:10194000384A1A605DE0FFF7EBFF374A031C107856
:101950000628F8D800F062F9040E14192A3C420057
:10196000324A3E2B38D11178432935D12E490120F6
:10197000087031E02E490B70002B2DD002232BE094
:101980002C491B020B80032326E02A4908880343C5
:101990009BB20B80002B01D0042300E005231370C1
:1019A000254A00231380254A13802AE023490A8808
:1019B000AB54013292B20A801F4908881B180B8071
:1019C0001C4B1B8893421CD1174B05221A7018E040
:1019D0001B491B020B800623137012E0184908886C
:1019E0000343184843409BB20B8000211170124AF8
:1019F00012889A4211D10F4B1B8823600C4B187828
:101A00000DE0FFF785FF00289DD108E01868002849
:101A100005D001381860101C01E00120404238BD9B
:101A2000E400001040420F00D9000010DE0000105A
:101A3000D8000010DC000010DA000010E2000010F6
:101A4000E000001055AAFFFF70B5144B43241C6042
:101A5000053C1C6018601012C0B21860D0B218604B
:101A6000181C43699C06FCD5141E0ED000231C1CB8
:101A7000CD5C0560CD5C01336419A4B25D0702D171
:101A80004569AE06FCD59342F2D1054B5C40A4B249
:101A9000230AE4B20360046070BDC04600800040C9
:101AA00055AAFFFF10B5031C8918101C02E00C702A
:101AB000013301311C780130002CF8D10C7010BDBD
:101AC00000B5002303E001336438DBB2C0B2632801
:101AD000F9D8002B02D030330B700123002203E031
:101AE00001320A38D2B2C0B20928F9D83032CA5409
:101AF00030300133C854581C00BD000010B5194BDC
:101B000000221A62C0460132C82AFBD10021C73A1E
:101B100019645A6459645A64596C124AC807FBD54F
:101B2000232191606B31890050588024A04350508C
:101B3000D86801210B4A0842FAD003201067033805
:101B4000516750675167596F01221142FBD0054B15
:101B500005499A670433D96790331A605A609A60CE
:101B600010BDC046008004405F00010008B5FFF7CB
:101B700085FB08BD08B500F03BF808BD002931D051
:101B80000122D207030901E0090112099942FBD998
:101B9000430801E0490052089942FBD900E0490896
:101BA000401A07D35241FAD30146104670474908FC
:101BB0004018F7D29218FAD34018014610467047E1
:101BC000CB0F00D04942021000D54042534008B527
:101BD000FFF7D4FF0CBC521000D34042002A00D5BE
:101BE00049421847F446002000F001F8604770476A
:101BF0008446830708D18B0706D1131F04D304C979
:101C000004C0043BFBD21A1D524205D0891A801A27
:101C10008B5C83540132FBD1604670478C46714621
:101C20000139095C49008E44614670475501FFFF48
:101C3000FFFFFFFF4C656D69612020204244534740
:101C40003120303935313035353034364841524421
:101C50003A20424453473120526576204300534F87
:101C600046543A2076312E302E312030312F303309
:101C70002F32303133005732355131362057696EAB
:101C800064626F6E642031364D62205350492046A5
:101C90006C617368005732355133322057696E6476
:101CA000626F6E642033324D622053504920466C7F
:101CB000617368005732355136342057696E64625B
:101CC0006F6E642036344D622053504920466C615B
:101CD00073680053504920466C617368206E6F74BE
:101CE0002064657465637465640049442000FFFFE7
:041CF000FFFFFFFFF4
:081CF40001000000006CDC029D
:040000030000010DEB
:00000001FF
