:100000000020001003010000D5000000D700000010
:1000100000000000000000000000000000000000E0
:10002000000000000000000000000000D9000000F7
:100030000000000000000000DB000000DD00000008
:10004000DF000000DF000000DF000000DF00000034
:10005000DF000000DF000000DF000000DF00000024
:10006000DF000000DF000000DF000000DF00000014
:10007000DF000000DF000000DF000000DF00000004
:10008000D10B0000150E0000DF000000DF000000B3
:10009000DF000000DF0000000000000000000000A2
:1000A000DF000000D50C0000BD0C000000000000C7
:1000B000DF000000DF000000DF000000DF000000C4
:1000C000B41B000000000010080000000800001031
:1000D00008110000FEE7FEE7FEE7FEE7FEE7FEE7A9
:1000E000002310B5934203D21C585C500433F9E747
:1000F00010BD00231A008B4202D21A500433FAE7D3
:10010000704710B50C4C0D4B9C4206D2A26861683A
:100110002068FFF7E5FF0C34F5E7094B9C4205D258
:1001200061682068FFF7E5FF0834F6E701F042FC5C
:1001300001F07CFCFEE7C046C0000000CC000000DF
:10014000D4000000FFFFFFFFFFFFFFFFFFFFFFFFE7
:10015000FFFFFFFFFFFFFFFFFFFFFFFFFFFFFFFFAF
:10016000FFFFFFFFFFFFFFFFFFFFFFFFFFFFFFFF9F
:10017000FFFFFFFFFFFFFFFFFFFFFFFFFFFFFFFF8F
:10018000FFFFFFFFFFFFFFFFFFFFFFFFFFFFFFFF7F
:10019000FFFFFFFFFFFFFFFFFFFFFFFFFFFFFFFF6F
:1001A000FFFFFFFFFFFFFFFFFFFFFFFFFFFFFFFF5F
:1001B000FFFFFFFFFFFFFFFFFFFFFFFFFFFFFFFF4F
:1001C000FFFFFFFFFFFFFFFFFFFFFFFFFFFFFFFF3F
:1001D000FFFFFFFFFFFFFFFFFFFFFFFFFFFFFFFF2F
:1001E000FFFFFFFFFFFFFFFFFFFFFFFFFFFFFFFF1F
:1001F000FFFFFFFFFFFFFFFFFFFFFFFFFFFFFFFF0F
:10020000FFFFFFFFFFFFFFFFFFFFFFFFFFFFFFFFFE
:10021000FFFFFFFFFFFFFFFFFFFFFFFFFFFFFFFFEE
:10022000FFFFFFFFFFFFFFFFFFFFFFFFFFFFFFFFDE
:10023000FFFFFFFFFFFFFFFFFFFFFFFFFFFFFFFFCE
:10024000FFFFFFFFFFFFFFFFFFFFFFFFFFFFFFFFBE
:10025000FFFFFFFFFFFFFFFFFFFFFFFFFFFFFFFFAE
:10026000FFFFFFFFFFFFFFFFFFFFFFFFFFFFFFFF9E
:10027000FFFFFFFFFFFFFFFFFFFFFFFFFFFFFFFF8E
:10028000FFFFFFFFFFFFFFFFFFFFFFFFFFFFFFFF7E
:10029000FFFFFFFFFFFFFFFFFFFFFFFFFFFFFFFF6E
:1002A000FFFFFFFFFFFFFFFFFFFFFFFFFFFFFFFF5E
:1002B000FFFFFFFFFFFFFFFFFFFFFFFFFFFFFFFF4E
:1002C000FFFFFFFFFFFFFFFFFFFFFFFFFFFFFFFF3E
:1002D000FFFFFFFFFFFFFFFFFFFFFFFFFFFFFFFF2E
:1002E000FFFFFFFFFFFFFFFFFFFFFFFFFFFFFFFF1E
:1002F000FFFFFFFFFFFFFFFFFFFFFFFF78563412F6
:1003000070B588B0040020221A49684601F08AFBC3
:10031000002000F022FB6A462378202113716378C5
:1003200000205371A378AA259371E3788024D371B8
:10033000552600F0EEFA64016A460221200000F022
:10034000C5FA6B461B78FF2B03D16B465B78FF2BFE
:1003500005D0094B20009D609E6000F0FEFA8023CE
:100360005B01E41880231B049C42E5D1002008B007
:1003700070BDC046EA1A00000040004037B5040BCB
:10038000240301AD2A000221200000F09FFA2B78FF
:10039000FF2B02D16B78FF2B03D080235B01E41885
:1003A000EFE720003EBDFFFFF0B50D0085B00190E6
:1003B000002D44D0FF22234E234C3068234F2B18AE
:1003C00004409343A3420AD12900019A00F0A1FA04
:1003D00033685B1933603B685D193D602FE0241A78
:1003E0000134FF342100019A00F093FA3B68306831
:1003F0001B193B60019B2D1B1B1901930300241843
:1004000063401B0B19D0FFF7B9FF03AF030B3B7021
:10041000030D7B7033680400180B000302303A00B0
:10042000022100F076FA55233B70212320003A0088
:1004300002217B7000F06DFA04343460B8E70120CB
:1004400005B0F0BD1000001000FFFF0F14000010F9
:1004500007B5064B01AA1B6804210193044B1868D9
:10046000043000F056FA01200EBDC0461400001002
:100470000C00001013B5000B01AC00032200042196
:1004800000F024FA23780020552B08D1A078E378D7
:10049000034A00031B051843904200D9002016BDF3
:1004A000FFEFFF0FF7B5234E234A33681268019020
:1004B0000D00002093423CD259188A4200D2D51A2E
:1004C00000230093002D33D01C4F38682B18434075
:1004D0001B0B20D08023040B2403241A5B01E41897
:1004E0002100019A00F0F2F9009B2D1B1B190093CB
:1004F000019B38681B19019333681C193460FFF79E
:10050000B9FF3860002803D10B4B1B6833600FE044
:1005100004303860D6E7019A290000F0D7F93B682B
:100520005B193B6033685B193360009B5B19009378
:100530000098FEBD0800001014000010100000100C
:10054000F0B5070089B00C00344DC30701D5002376
:100550002B60FE222868120103051B0D934225D152
:10056000FFF788FF2860002820D102231F4219D0FE
:10057000FFF704FF6A46030B1370030D53702B68DB
:100580000600180B00030230022100F0C2F96A468F
:100590005523022113703000543B2E60537000F03D
:1005A000B8F903E0202320762B6034E028686A46FF
:1005B00020302021286000F089F902206B46384065
:1005C0001B78002803D0FF2BC3D1237622E0FF2B1A
:1005D00001D123761FE0552BBBD16B465B78237688
:1005E00003006B441B7A235401301028F8D1019B7F
:1005F00023616B465B881B03043363616B461B7F7F
:1006000063766B465B7FA3766B469B7FE3766B4698
:10061000DB7F2377286809B0F0BDC0460C000010CE
:10062000F0B58BB007000191032024491500FFF7B6
:1006300087FF06000020FFF7A1FE552302AA1370D2
:10064000030B9370030DD370FF23040013715371D8
:100650009371D3715770F73B1A000199083A8A5C7D
:10066000002A03D002A9CA540133F5E7182B03D09E
:1006700002A9CA540133F9E702AAE7331376537685
:100680009376D3762B78300013776B7820215377CD
:10069000AB789377EB78D37700F03BF9200002AA90
:1006A000022100F036F90020054B04341E60054B92
:1006B0001C60054B18600BB0F0BDC046E800001090
:1006C0000C0000101000001014000010F7B51D7889
:1006D0000400082D0CD100238B4207D0E05C1C4E97
:1006E00000025D00801950530133F5E718002EE039
:1006F00000200C2D2BD10F260700611801910199C4
:10070000A14224D0997801290BD0002906D00229D2
:1007100013D15D7841008C46B54308E021785970CB
:100720000BE041008C46FF215D782D010D402178C2
:100730000130090229436546A95299780131C9B2AD
:10074000022901D8997000E09F700134D7E7FEBDFF
:100750000080FFFF37B50421040001AD2A00080026
:1007600000F0B4F82B7823706B786370AB78A370CB
:10077000EB78E37000232371637137BD01200349D7
:10078000034A8B5803438B507047C0460000025009
:10079000FC3F00000421224A30B5536821480B4336
:1007A00053608022C36FD20213430722C3671E4BDC
:1007B000023919601D4BDC6D9443DC65DC6D0C4324
:1007C000DC651B4C25689543256025680D43256035
:1007D00040259C6A94439C629C6A0C439C62C46F53
:1007E0002C43C46798680124904380229860114B81
:1007F00012029858204398500F481A5822431A5012
:1008000008230E4AFF3313601161FF3B013BDBB24B
:100810009168002BFAD10222084B5A6030BDC046C5
:1008200000800440048004409C8004400040044058
:100830008C40044000000250FC3F00000080054056
:10084000122110B5074CE368064A0B40022BFAD17F
:1008500090600E33D1681942FCD1024B9868C0B247
:1008600010BDC0460080054010B5002802D0FFF73B
:1008700085FF05E001200349034A8B5883438B50D1
:1008800010BDC04600000250FC3F000010B5002023
:10089000FFF7EAFF0620FFF7D3FFFFF76FFF10BD5A
:1008A00010B50020FFF7E0FF0520FFF7C9FFFF208C
:1008B000FFF7C6FF0400FFF761FF200010BD10B571
:1008C0000124FFF7EDFF2042FBD110BD70B50500FC
:1008D0000E001400FFF7F3FF0020FFF7C5FF032011
:1008E000FFF7AEFF280CC0B2FFF7AAFF280AC0B27C
:1008F000FFF7A6FFE8B2FFF7A3FFA619B44205D0A1
:10090000FF20FFF79DFF20700134F7E7FFF736FF68
:1009100070BD70B505000E001400FFF7D0FFFFF7A3
:10092000B5FF0020FFF7A0FF0220FFF789FF280C8A
:10093000C0B2FFF785FF280AC0B2FFF781FFE8B217
:10094000FFF77EFFA619B44204D02078FFF778FFA6
:100950000134F8E7FFF712FF70BD10B50400FFF790
:10096000AEFFFFF793FF0020FFF77EFF2020FFF789
:1009700067FF200CC0B2FFF763FF200AC0B2FFF789
:100980005FFFE0B2FFF75CFFFFF7F8FE10BD70B548
:100990000020FFF769FF9020FFF752FF0020FFF7CC
:1009A0004FFF0020FFF74CFF0020FFF749FFFF201B
:1009B000FFF746FF0500FF20FFF742FF0400FFF7A7
:1009C000DDFE28020419A0B270BDF8B506000020B3
:1009D000FFF74AFF4B20FFF733FFFF20FFF730FF01
:1009E000FF20FFF72DFFFF20FFF72AFFFF20FFF773
:1009F00027FF340001250F27FF20FFF721FF030900
:100A0000DBB2092B01D9373300E030332370384093
:100A1000092801D9373000E03030023560700234E7
:100A2000112DE9D100233374FFF7A8FEF8BDFFFFB5
:100A300080210D4AD36F0B43D3670C4B7E395A6824
:100A40000A435A6000220A495A60DA609961032118
:100A500059611A675A6802390A435A608022054B65
:100A600052021A607047C0460480044000C0004033
:100A70003F04000000E100E0124BF0B51B68012BC1
:100A80000DD1114A114D136814000022934216D162
:100A90008B4212DA5A00865E0133AE52F8E70C4AF6
:100AA0000C4D136814000022934208D18B4204DAE3
:100AB0005A00865E0133AE52F8E70A00216010004A
:100AC000F0BDC046000000101C0000100C09001012
:100AD000180000100C010010054B1B68012B01D100
:100AE000044B00E0044B1868434258417047C0462D
:100AF000000000101C0000101800001000221A4B0B
:100B000010B580211A65A0228024D2050902505810
:100B1000204350501548115821431150802014494A
:100B20007F3C4A68000122434A601249CA6F02436F
:100B3000CA67022210490A600721586E8843586626
:100B4000596E214359660D490A600821DA640C4B3D
:100B5000FF3119601A610632013A9968002AFBD107
:100B6000074B02325A6010BD00400440FC3F0000B9
:100B7000008004400480044094800440B04004405D
:100B800000000440A02110B580240F4AC9058B58ED
:100B9000A3438B5080231B02C0180C4B8112996019
:100BA00004218010C0B29860703CD8682042FCD10B
:100BB0000648C0680842F8D0A0218020C9058B589B
:100BC00003438B5010BDC046FC3F000000000440B2
:100BD00001211F4B70B51A680A4238D01D4C1960AC
:100BE0002368002B0AD01C4A1C4B19681368581C38
:100BF0005B001060585EFFF7C5FF25E0184A1068DB
:100C000001280ED117490868002806D0124D13603C
:100C10002B600B602060144B0DE08020FFF7B2FFCB
:100C200015E012480668002EF7D00B4D03602B60CC
:100C30000F4B11602660094A13600020185EFFF711
:100C4000A1FF2B6801332B602368013B236070BD3B
:100C500000C0004020000010240000100801001017
:100C6000000000101C0000100C09001018000010FB
:100C70000C0100100D4B8022D96F52000A43DA6735
:100C80000B4B02215A680A435A602F2100225A60F6
:100C9000D96008499961032159611A6701225A6094
:100CA000054B802292021A607047C04604800440BF
:100CB00000000140E703000000E100E0BFF34F8FB8
:100CC000024A034BDA60BFF34F8FFEE70400FA05D8
:100CD00000ED00E0BFF34F8F024A034BDA60BFF331
:100CE0004F8FFEE70400FA0500ED00E0F0B5174E67
:100CF0002027331CAC331F608021154B09025A5842
:100D0000082082435A50134A7F2510780424284033
:100D1000A0430124A04302240023A0431070936049
:100D20005360D3600C4A376056584027BE43565034
:100D30000A4A0420117893600D40854301218D43B8
:100D4000A54315705360D360F0BDC0460040044019
:100D500000000350780000100000025088000010CE
:100D600038B5134C8E239B00E25810218A43E25081
:100D7000231DD96F802292010A43DA670D4B0122AD
:100D8000191C98310A6004390A60191DCA67DA67AC
:100D90009A675A67084B051CA16F186800F04DFE52
:100DA000291C00F04AFE054B01380002186038BDCE
:100DB00000800440004004400400001000C00140D6
:100DC0000722002382425B415B4218400E4BFF2109
:100DD0001A688A431A601968802252040A43012162
:100DE00081400A431A60094A800080180268002A7C
:100DF000FCDA18680649014019600020530001D44C
:100E00001204900D7047C04600C0014010C0014060
:100E1000FFFFFFF8C44B0122196810B5114200D141
:100E2000D1E11A60C14B196801391960002900D05D
:100E300026E178211960BE4BD86841005868D96016
:100E4000322801DD0A43DA600022D9685A6007229D
:100E50000A40012A02D11A78022109E0062A02D1A9
:100E60001A78042104E0072A04D18022197852421A
:100E70000A4304E0002A03D119787F220A401A703D
:100E8000AC4BD86859684200DA60322902DD012192
:100E90000A43DA600022D9685A6007220A40012A10
:100EA00002D11A78022109E0062A02D11A78042117
:100EB00004E0072A04D18022197852420A4304E050
:100EC000002A03D119787F220A401A709A4BD868F9
:100ED00059684200DA600F2902DD01210A43DA6015
:100EE0000022D9685A6007220A40012A02D11A78E2
:100EF000022104E0072A04D18022197852420A43D1
:100F000004E0002A03D119787F220A401A708B4B23
:100F1000D86859684200DA600F2902DD01210A43CE
:100F2000DA600022D9685A6007220A40012A02D1F9
:100F30001A78022104E0072A04D18022197852424B
:100F40000A4304E0002A03D119787F220A401A706C
:100F50007B4BD86859684200DA600F2902DD012115
:100F60000A43DA600022D9685A6007220A40012A3F
:100F700002D11A78022104E0072A04D180221978CC
:100F800052420A4304E0002A03D119787F220A4022
:100F90001A706C4BD86859684200DA600F2902DD7C
:100FA00001210A43DA600022D9685A6007220A4008
:100FB000012A02D11A78022104E0072A04D18022F2
:100FC000197852420A4304E0002A03D119787F229B
:100FD0000A401A705C4BD86859684200DA600F29E1
:100FE00002DD01210A43DA600022D9685A60072233
:100FF0000A40012A03D11A7802210A431A70534B7E
:10100000D86859684200DA600F2902DD01210A43DD
:10101000DA600022D9685A6007220A40012A03D107
:101020001A7802210A431A70494BD868596842005D
:10103000DA600F2902DD01210A43DA600022D96853
:101040005A6007220A40012A03D11A7802210A4372
:101050001A70404BD86859684200DA600F2902DDE7
:1010600001210A43DA600022D9685A6007220A4047
:10107000012A00D09BE01A7802210A431A7096E0F8
:10108000354B364AD1581A1C0B0703D5284B5968E3
:1010900001315960324B9B58580603D5254B5A688D
:1010A00001325A600320FFF78BFE2E4C80B2A04223
:1010B00012D81A23FF33984204D81F4B5A680132C2
:1010C0005A6005E0A023FF33984201D81A4B00E094
:1010D0001D4B5A6801325A600220FFF771FE80B240
:1010E000A04212D81A23FF33984204D8134B5A68EF
:1010F00001325A6005E0A023FF33984201D80F4B1C
:1011000000E0124B5A6801325A600120FFF758FE86
:1011100080B2A04232D81A23FF33984224D8084B19
:101120005A6801325A6025E0000001409C0000101E
:101130007800001088000010A8000010B80000100F
:10114000C8000010680000102800001038000010CF
:101150004800001058000010FC3F00000000035041
:1011600000000250FF020000A023FF33984201D884
:10117000154B00E0154B5A6801325A600020FFF70A
:101180001FFE80B2A04212D81A23FF33984204D81F
:101190000F4B5A6801325A6005E0A023FF33984292
:1011A00001D80B4B00E00B4B5A6801325A600A4BD6
:1011B0001A68013A002A01D01A6004E032221A604B
:1011C000064B01221A7010BDC80000104800001024
:1011D0006800001058000010A0000010A4000010CB
:1011E0000F4B80211A1DD06F09020143D1678E2257
:1011F000920098580121884398501A1CD032002040
:101200001060506051600748074AD8335060196039
:1012100003231360AA239360552393607047C0464D
:1012200000800440B0710B0000400040024BAA2235
:101230009A6055229A60704700400040F0B5E24C39
:10124000E249A544062209A800F0ECFBFFF7C8FF1D
:10125000FFF754FCFFF7ECFBDD4E013EFFF7E6FF26
:10126000002EFAD1DB4CDC4D20272B59BB432B51F0
:10127000FFF7B6FFD94B0A221A6068460821D84BFF
:1012800086770177192280201A6000022B583B4391
:101290002B502B59BB432B51FFF728FDA023802156
:1012A000DB0509025A58CF483A435A501A593A4373
:1012B0001A51FFF755FDFFF721FCFFF7B9FBFFF7C8
:1012C00069FAC94800F026FAFFF7D4FCFFF75FFB84
:1012D000059009A8FFF73EFA6A4608230A20967788
:1012E0000296371C049613770390261CBF4B1A688E
:1012F00001321A60FFF79AFF002F02D102990029EC
:1013000063D0BB4B02221978002491431970B94B6A
:1013100001201978914319706A460C231AA9137792
:101320009477FFF70DF9201C1AA9FFF709F9029B22
:10133000A34203D0201C1AA9FFF702F9AE4B1E9856
:101340001F9A1860AD4B80211A60AD4B00224900F6
:1013500082A81A60FFF7A6F89F4920228B59041C27
:1013600013438B51002C30D0FA21490082A8FFF79B
:1013700099F8C122041CD20082A8211C6A4407AB40
:10138000FFF7A4F9051CFFF751FFFFF7A5FB0128A4
:101390000AD09C4B1A78012AF7D13A1C511E8A4177
:1013A000BF1A00221A70F0E7C120C0006844291C4F
:1013B000FFF762FB002F05D1029842424241D2B2B0
:1013C0000292CFE700210291CCE7894D287880076F
:1013D000C00F012863D100246A460C231AA9947710
:1013E0001377FFF7ADF81AA9201CFFF7A9F81AA97F
:1013F000201CFFF7A5F8201C1AA9FFF7A1F8A742A7
:1014000003D0201C1AA9FFF79BF82A780223794CF5
:101410009A432A7022781E989A43774B227018605C
:101420001F9A764B80211A60754B0022490082A8D2
:101430001A60FFF737F8684920228B59051C1343BF
:101440008B51002D1BD0FA21490082A8FFF72AF802
:10145000C122051CD20082A8291C6A4407ABFFF7F1
:1014600035F9071CFFF7E2FEFFF736FB0128FBD139
:10147000C120C0006844391CFFF7FEFAE1E75C4A6E
:1014800002231178C82799431170227820219A43AA
:10149000A0232270DB059A597F000A439A5142AC7F
:1014A000201C08A900F094F9C5B2002D00D106E176
:1014B000242D04D1201C0899FEF776FFEFE0082DBB
:1014C00059D122A90022504800F042FA22A9021C58
:1014D0004E4800F03DFA0DAC09AD0190211C2F27BC
:1014E000287800F047FAA77069463731687800F02D
:1014F00041FA3223A3713023E37167710FA9A878F1
:1015000000F038FA2023A37269463F31E87800F0F2
:1015100031FA68236373019A0023201C22A9A37364
:1015200000F016FA3A4B021C0598984201D139484E
:101530000CE0394B0599994201D1384806E0384B07
:101540000598984201D1374800E0374822A900F0B9
:10155000FFF9051C201CFFF738FA22A92A1C334882
:1015600000F0F6F922A9421E201C00F0F1F922A990
:10157000021C082024E0A02D5AD108990027062932
:1015800000D09CE02378A02B00D098E06378AA2BB1
:1015900000D094E009A803781F2B03D84378013BBF
:1015A0000B2B07D9A3780370E378437023798370FA
:1015B0006379C370FEF7A4FE82A9A02008700122FF
:1015C00000F094F900277AE024F2FFFF0A1B0000E4
:1015D00040420F00FC3F000000000150A00000103E
:1015E0009C000010009F240060E31600980000108B
:1015F0007800001088000010140000101000001087
:1016000008000010A4000010101B0000221B0000A6
:1016100014EF00003A1B000015EF0000591B0000FA
:1016200016EF0000781B0000971B0000AE1B0000A7
:10163000122D1ED1089A0027082A40D12378122B98
:101640003DD1A579E3792D021D4380235B009D42A6
:1016500000D91D1CE078237900041B02184363792C
:10166000291C184382AAFFF731F9122082A92A1CEB
:10167000A6E7202D0FD1A3780BAA1370E378694653
:10168000537023790F31937063792078FF31D370D1
:10169000FEF7C6FF03E02F2D05D1FEF7D9FE82A984
:1016A0000D70281C8BE700272A2D08D112A920785D
:1016B000FEF746FF281C12A9192200F017F9134A59
:1016C0001378012B00D011E6391C481E81417F1A86
:1016D00000211170039A013AD2B203928A4200D0DB
:1016E00004E604982022012808D109498B59934324
:1016F0008B51039A0F2304920393F7E50448815911
:101700000A430F21825104930391EFE5A4000010D6
:1017100000000150802270B50725214B9203DA6743
:10172000204B06001A681020AA431A60012219688B
:101730001D4C1143196019680143802019601B4B2F
:1017400040011968A94319601968114319601849C3
:10175000CB6F0343CB67174B1A608232E260196884
:10176000154B986F154B1B68584300F066F9310014
:10177000000900F062F9030A636003236022C0B22B
:101780002060E360A560636963691340602BFBD14F
:1017900005495F3B62691A4201D00A68FAE770BDE9
:1017A00004E100E0A440044000800040A840044060
:1017B000048004409880044000800440040000102D
:1017C000024B5869012318407047C0460080004012
:1017D000F8B500230B6006000C00FFF7F1FF384A54
:1017E000002863D00525374B1360FFF7E9FF002879
:1017F0005AD03549354B08781B680A00DBB20628F9
:10180000F3D800F06AF9040E151A293A3F00304A5D
:101810001078432803D13E2B01D142380870137051
:10182000E3E72C4A1370002B00D002230B70DCE797
:10183000294A1B0213800323F8E727480288134331
:10184000038002D004230B7000E00D700023234AB4
:101850001380234A1380C8E721480288B354013219
:1018600092B202801D480788BC46634403801A4B2D
:101870001B889342B9D10D70B7E71A4A1B02138037
:101880000623D3E7174801880B4317494B40002133
:101890001170124A038012889A420DD10E4B1B8898
:1018A00023600C4B187809E0002007E01368002B38
:1018B000FAD0013B136001E001204042F8BDC04670
:1018C000E400001040420F00D900001000800040EA
:1018D000DE000010D8000010DC000010DA0000105C
:1018E000E2000010E000001055AA0000F0B543240B
:1018F000154B1C60053C1C601860FF20141204404E
:1019000010401C6018601C00202360691842FCD045
:1019100000239A420FD01800072620270D5C25606F
:101920000D5C01305B199BB2304202D165693D42CA
:10193000FCD08242F2D1054A53401A0A92B2DBB27D
:1019400022602360F0BDC0460080004055AA000020
:10195000F0B50500170089185642A819845CD31BFE
:10196000CB18501C002C03D08B199C540200F4E7B8
:101970001C70F0BD002263280CD90300643BDBB26D
:101980000132632B02D93830C3B2013230320A70CF
:10199000180001220023092804D901330A38DBB2D8
:1019A000C0B2F8E730338B54303089184870901C3F
:1019B0007047FFFF10B5194B00221A62C046013272
:1019C000C82AFBD10021C73A19645A6459645A6481
:1019D000596C124AC807FBD5232191606B318900ED
:1019E00050588024A0435050D86801210B4A084227
:1019F000FAD0032010670338516750675167596F59
:101A000001221142FBD0054B05499A670433D9677F
:101A100090331A605A609A6010BDC046008004403E
:101A20005F00010010B500F042F810BD10B5FFF7DF
:101A300005FC10BD03000B4321D4002931D0012245
:101A4000D207030901E0090112099942FBD94308B1
:101A500001E0490052089942FBD900E04908401AC8
:101A600007D35241FAD3014610467047490840183F
:101A7000F7D29218FAD34018014610467047CB0FA0
:101A800000D04942021000D54042534008B5FFF74C
:101A9000D4FF0CBC521000D34042002A00D549426A
:101AA0001847F446002000F001F86047704784466C
:101AB000830708D18B0706D1131F04D304C904C0C0
:101AC000043BFBD21A1D524205D0891A801A8B5C46
:101AD00083540132FBD1604670478C467146013910
:101AE000095C49008E44614670475501FFFFFFFFC6
:101AF000FFFF4C656D69612020204244534731202F
:101B000030393531303535303436FFFFFFFFFFFFD8
:101B1000484152443A20424453473120526576208E
:101B20004300534F46543A2076312E302E31203028
:101B3000312F30332F323031330057323551313677
:101B40002057696E64626F6E642031364D62205397
:101B5000504920466C61736800573235513332204A
:101B600057696E64626F6E642033324D6220535049
:101B70004920466C6173680057323551363420571E
:101B8000696E64626F6E642036344D622053504932
:101B900020466C6173680053504920466C6173683D
:101BA000206E6F74206465746563746564004944D5
:041BB0002000FFFF13
:081BB40001000000006CDC02DE
:0400000300000103F5
:00000001FF
