:10000000002000100D010000D5000000D900000004
:1000100000000000000000000000000000000000E0
:10002000000000000000000000000000DD000000F3
:100030000000000000000000E1000000E5000000FA
:100040004D0100004D0100004D0100004D01000078
:100050004D0100004D0100004D0100004D01000068
:100060004D0100004D0100004D0100004D01000058
:100070004D0100004D0100004D0100004D01000048
:10008000C5080000B10900004D0100004D0100004D
:100090004D0100004D0100000000000000000000C4
:1000A0004D0100004D0100004D0100000000000066
:1000B0004D0100004D0100004D0100004D01000008
:1000C000B80F000000000010080000000800001039
:1000D0005810000000B5FEE700B5FEE700B5FEE7EA
:1000E00000B5FEE700B5FEE710B5002302E01C589E
:1000F000043310C19342FAD310BD00B5002302E0CF
:10010000002204C004338B42FAD300BD10B50C4C5E
:1001100005E020686168A2680C34FFF7E5FF094B31
:100120009C42F6D304E0206861680834FFF7E5FFDD
:10013000054B9C42F7D300F0ABFE00F0E1FEFEE77A
:10014000C0000000CC000000D400000000B5FEE7B5
:10015000FFFFFFFFFFFFFFFFFFFFFFFFFFFFFFFFAF
:10016000FFFFFFFFFFFFFFFFFFFFFFFFFFFFFFFF9F
:10017000FFFFFFFFFFFFFFFFFFFFFFFFFFFFFFFF8F
:10018000FFFFFFFFFFFFFFFFFFFFFFFFFFFFFFFF7F
:10019000FFFFFFFFFFFFFFFFFFFFFFFFFFFFFFFF6F
:1001A000FFFFFFFFFFFFFFFFFFFFFFFFFFFFFFFF5F
:1001B000FFFFFFFFFFFFFFFFFFFFFFFFFFFFFFFF4F
:1001C000FFFFFFFFFFFFFFFFFFFFFFFFFFFFFFFF3F
:1001D000FFFFFFFFFFFFFFFFFFFFFFFFFFFFFFFF2F
:1001E000FFFFFFFFFFFFFFFFFFFFFFFFFFFFFFFF1F
:1001F000FFFFFFFFFFFFFFFFFFFFFFFFFFFFFFFF0F
:10020000FFFFFFFFFFFFFFFFFFFFFFFFFFFFFFFFFE
:10021000FFFFFFFFFFFFFFFFFFFFFFFFFFFFFFFFEE
:10022000FFFFFFFFFFFFFFFFFFFFFFFFFFFFFFFFDE
:10023000FFFFFFFFFFFFFFFFFFFFFFFFFFFFFFFFCE
:10024000FFFFFFFFFFFFFFFFFFFFFFFFFFFFFFFFBE
:10025000FFFFFFFFFFFFFFFFFFFFFFFFFFFFFFFFAE
:10026000FFFFFFFFFFFFFFFFFFFFFFFFFFFFFFFF9E
:10027000FFFFFFFFFFFFFFFFFFFFFFFFFFFFFFFF8E
:10028000FFFFFFFFFFFFFFFFFFFFFFFFFFFFFFFF7E
:10029000FFFFFFFFFFFFFFFFFFFFFFFFFFFFFFFF6E
:1002A000FFFFFFFFFFFFFFFFFFFFFFFFFFFFFFFF5E
:1002B000FFFFFFFFFFFFFFFFFFFFFFFFFFFFFFFF4E
:1002C000FFFFFFFFFFFFFFFFFFFFFFFFFFFFFFFF3E
:1002D000FFFFFFFFFFFFFFFFFFFFFFFFFFFFFFFF2E
:1002E000FFFFFFFFFFFFFFFFFFFFFFFFFFFFFFFF1E
:1002F000FFFFFFFFFFFFFFFFFFFFFFFF78563412F6
:1003000037B5040B240301AD201C02212A1C00F088
:100310009EF92B78FF2B04D16B78FF2B01D1201C89
:100320003EBD80235B01E418EDE7000013B501AC8E
:10033000000B00030421221C00F089F9237800201F
:10034000552B0AD1E078A37800051B03034A184314
:10035000002382425B415B42184016BDFFEFFF0F56
:10036000F0B58BB0021C01900C1CD20702D5394BA2
:1003700000221A60374DFE2328681B010205120D6A
:100380009A4229D1FFF7D2FF2860002824D1019B8F
:1003900002273B401BD0FFF7B3FF6A46030B061C46
:1003A0001372030D28685372000B0003C019391C27
:1003B00002AA00F070F96A4655231372543B537237
:1003C0002E60301C391C02AA00F065F904E02022DE
:1003D0002A602376181C3AE01E4D02AA28682021C4
:1003E0002030286000F033F96A46137A019A02201F
:1003F000104004D0FF2BBDD12376286827E0FF2BC7
:1004000001D1237623E0552BB4D16A46537A237663
:1004100002AA13181B7A235401301028F8D1039B29
:100420006A462361538909AA1B0304336361137865
:10043000252263766A4413782622A3766A441378C9
:100440002722E3766A4413782377024B18680BB0AF
:10045000F0BDC0460C000010F7B5244B244A1B68C1
:10046000126801900E1C002793423CD2C918914299
:1004700000D9D61A002734E01E4C1C4D20683318D2
:1004800043401B0B002B20D0030B1B0380221B1AA5
:100490005201D218111C0092019A00F0D8F8009B6A
:1004A000009AFF182B6820689B182B60FFF73EFF0F
:1004B0002060002817D0019B04301A1C009B20608C
:1004C000D218009B0192F61A0BE0311C019A00F041
:1004D000BEF82368BF19F31823602B68F3182B604C
:1004E00001E0002EC8D1381CFEBDC0460800001037
:1004F000100000101400001037B5041C01AD0420DA
:100500002A1C011C00F0A3F82B7823706B78637011
:10051000AB78A370EB78E37000232371637137BD70
:1005200030B5224B04215A6858180A435A60C16FEB
:100530008022D2020A43C2679C3302221A601C4BFB
:100540000721DC6D8C43DC65DC6D1443DC651C1C11
:100550008C3425688D4325602568154325609C6A89
:1005600040258C439C629C6A14439C62C46F2C435C
:10057000C46798688843986080210E4B09025C58D4
:10058000012004435C500C495C58204358500B4BED
:100590000B4919601A61996899689968996899680E
:1005A0009968996899685A6030BDC04600800440D7
:1005B0000040044000000250FC3F00000080054065
:1005C0000701000000B5074B1222D9680A40022A31
:1005D000F9D19860DA68D106FCD4024B9868C0B2B1
:1005E00000BDC0460080054000B5064A064B01210B
:1005F000002802D0D058014302E0D0588843011CA3
:10060000D15000BD00000250FC3F000008B50020A2
:10061000FFF7EAFF0620FFF7D5FF0120FFF7E4FF11
:1006200008BD10B50020FFF7DFFF0520FFF7CAFF68
:10063000FF20FFF7C7FF041C0120FFF7D5FF201C98
:1006400010BD08B5FFF7EDFFC307FBD408BD70B5BB
:10065000041C0D1C161CFFF7F4FF0020FFF7C4FF5D
:100660000320FFF7AFFF200CC0B2FFF7ABFF200A5B
:10067000C0B2FFF7A7FFE0B2FFF7A4FF002404E039
:10068000FF20FFF79FFF30550134AC42F8D3012023
:10069000FFF7AAFF70BD70B5041C0D1C161CFFF7F8
:1006A000D0FFFFF7B3FF0020FFF79EFF0220FFF708
:1006B00089FF200CC0B2FFF785FF200AC0B2FFF708
:1006C00081FFE0B2FFF77EFF002403E0305DFFF71B
:1006D00079FF0134AC42F9D30120FFF785FF70BDEB
:1006E00038B50020FFF780FF9020FFF76BFF002058
:1006F000FFF768FF0020FFF765FF0020FFF762FFAC
:10070000FF20FFF75FFF041CFF20FFF75BFF2402C1
:10071000051C2D190120FFF767FFA8B238BD0000A6
:100720000D4B8021DA6F0A43DA670C4B7E395A6829
:100730000A430B495A6000225A60DA60996103212A
:1007400059611A675A6802390A435A60054B802278
:1007500052021A607047C0460480044000C0004046
:100760003F04000000E100E070B5124A031C12686B
:10077000012A0DD110480268041C101E05D016E095
:100780009E5A0E4D0130AE5202328842F8DB0CE028
:100790000B480268041C101E05D008E09E5A094D43
:1007A0000130AE5202328842F8DB216000E00021C5
:1007B000081C70BD000000101C0000105C08001038
:1007C000180000105C00001000B5054B1B68012BE1
:1007D00001D1044B00E0044B18684342584100BD6E
:1007E000000000101C0000101800001030B51B4B5A
:1007F00000221A658021A032D205090254588020B7
:10080000044354501649545820435050154A01216E
:100810005068802408435060101DC56F24012C438C
:10082000C467022290300260586E0724A0435866C5
:10083000586E01435966191CB0310A60DA640A49DE
:100840000A4B19601A61996899689968996899685A
:100850009968996899685A6030BDC0460040044064
:10086000FC3F00000080044007010000000004403D
:10087000014B98607047C0460000044038B50F4CEB
:10088000A023DB051A598021051C8A438008C0B2C9
:100890001A51AD01FFF7ECFFE8B2FFF7E9FF084B93
:1008A000DA68D106FBD4DB685A07F8D5A023DB054C
:1008B0001A5980210A431A5138BDC046FC3F000036
:1008C0000000044070B51F4B01211A680A4237D05E
:1008D0001D4C19602368002B0AD01C4B1C491A6858
:1008E000096850000132405A1A60FFF7C7FF20E044
:1008F000184A106801280AD11749086800281CD036
:10090000124D13602B600B602060144B09E01448FB
:100910000668002E11D00D4D03602B60114B116045
:1009200026600B4A13601888FFF7A8FF2B68013375
:100930002B602368013B236002E08020FFF79EFFCD
:1009400070BDC04600C00040200000102400001010
:1009500058000010000000101C0000105C0800107F
:10096000180000105C0000100D4B8022D96F52005F
:100970000A43DA670B4B02215A680A435A602D3149
:1009800000225A60D96008499961032159611A67A8
:1009900001325A60054B7F3292021A607047C0469E
:1009A0000480044000000140E703000000E100E093
:1009B00000B5374B01221968114268D01A60354BD7
:1009C00019680139196000294DD178311960324B0D
:1009D000D96858689140D960322801DD0A43DA604D
:1009E0000022D9685A6007320A40012A02D11A78D7
:1009F000022109E0062A02D11A78042104E0072A1C
:100A000004D17932197852420A4304E0002A03D112
:100A100019787F320A401A70204BDA685968520000
:100A2000DA60322902DD01210A43DA600022D96846
:100A30005A6007320A40012A02D11A78022109E0DD
:100A4000062A02D11A78042104E0072A04D1793257
:100A5000197852420A4304E0002A0DD119787F32F6
:100A60000A401A7008E00E4B0E4AD3585A0603D5B6
:100A7000094B5A6801325A600B4B1A68013A1A60E6
:100A8000002A04D132321A60084B313A1A7000BD84
:100A9000000001404800001028000010380000103D
:100AA000FC3F0000000002505000001054000010F5
:100AB000F0B5174E2027331CAC331F608021154B37
:100AC00009025A58082082435A50134A7F25107849
:100AD00004242840A043033CA04301340023A04346
:100AE000107093605360D3600C4A37605658FF19FA
:100AF000BE4356500A4A0420117893600D40854346
:100B000001218D43A54315705360D360F0BDC046ED
:100B10000040044000000350280000100000025074
:100B20003800001010B50F4B8E2292009958041C0B
:100B30001020814399501A1DD06F802189010143F3
:100B4000D167094A01211160996F084B186800F0BC
:100B5000DFF9211C00F0DCF9054B013800021860B8
:100B600010BDC046008004409840044004000010BE
:100B700000C0014000B50722002382425B415B4276
:100B800018400E4BFF211A688A431A6019688022A8
:100B900052040A43012181400A431A60084A80181E
:100BA00080000268002AFCDA1868064901401960D2
:100BB0000020530001D41204900D00BD00C001407C
:100BC00004700010FFFFFFF8F0B57B4CBF20A54478
:100BD00000017A490622684400F096F9784B0A220F
:100BE0001A60784B0F321A60774E67321202B15892
:100BF00020231943754DB15072599A43744B725169
:100C0000725920218A43013B7251002BF8D1FFF722
:100C10004FFF7048FFF786FFFFF7E8FDFFF780FD05
:100C2000FFF77EFC6C4800F0E3F8FFF79DFEFFF74E
:100C300057FDBF2000016844FFF75EFC6427BD2418
:100C400024016C44211C0120FFF78AFB211C002099
:100C5000FFF786FB2269614BFA201A606269604BDC
:100C6000C0001A605F4B002280211A60684449006E
:100C7000FFF7F2FB735920221343041C735132E037
:100C8000FA20C000FA2168444900FFF7E5FB002282
:100C9000041C554B14E01A6800215200684611529A
:100CA000FA201A68C00019686844405C520069461E
:100CB000515A8C46011C6144684611521A6801322F
:100CC0001A60494B1A68A242E5D1FFF77DFD012861
:100CD000FBD16846211CFFF747FD002F0BD0434B8B
:100CE0001B78990703D4002CCAD1002F03D03F4BA7
:100CF0001B789A07A3D50720FFF73CFF3B4BBD2489
:100D00001A78022124018A436C441A70211C47007E
:100D10000120FFF725FB211C0020FFF721FB211CF0
:100D20000020FFF71DFB22692C4BFA201A60626934
:100D30002B4BC0001A602B4B002280211A606844A4
:100D40004900FFF789FB735920222D371343FF37E2
:100D5000041C73512CE0FA20C000FA2168444900B9
:100D6000FFF77AFB0022041C1F4B14E01A680021D5
:100D7000520068461152FA201A68C0001968684487
:100D8000405C52006946515A8C46011C61446846D9
:100D900011521A6801321A60134B1A68A242E5D147
:100DA000FFF712FD0128FBD16846211CFFF7DCFC90
:100DB000002CD0D143E7C04604F4FFFFB00F000081
:100DC000500000104800001000000150FC3F0000DF
:100DD00040420F00009F240057290400100000101B
:100DE00014000010080000104C0000102800001033
:100DF00070B5224B80229203DA67214B07251A68CF
:100E0000061CAA431A601968012211431960196867
:100E100010200143196059681A4CA9435960596858
:100E200011435960184B8021D86F49010143D9679C
:100E300094331A608232E260144A1968983B9B6FBF
:100E40001068584300F064F8311C000900F060F8A5
:100E5000030A6360FF231840FC3B2060E360A56049
:100E60006369626960231340602BFAD101E0054B8E
:100E70001B686369DA07FAD470BDC04604E100E07C
:100E8000A44004400080004004800440040000109E
:100E900010B5194B00221A62C0460132C82AFBD194
:100EA0000021C73A19645A6459645A64596C124A49
:100EB000C807FBD5232191606B31890050588024ED
:100EC000A0435050D86801210B4A0842FAD00320B1
:100ED00010670338516750675167596F01221142FB
:100EE000FBD0054B05499A670433D96790331A60E4
:100EF0005A609A6010BDC046008004405F00010047
:100F000008B5FFF761FE08BD08B500F03BF808BD65
:100F1000002931D00122D207030901E00901120999
:100F20009942FBD9430801E0490052089942FBD994
:100F300000E04908401A07D35241FAD3014610464F
:100F4000704749084018F7D29218FAD34018014662
:100F500010467047CB0F00D04942021000D54042E6
:100F6000534008B5FFF7D4FF0CBC521000D34042E9
:100F7000002A00D549421847F446002000F001F845
:100F8000604770478446830708D18B0706D1131F3B
:100F900004D304C904C0043BFBD21A1D524205D03D
:100FA000891A801A8B5C83540132FBD160467047EA
:080FB000FFFFFFFFFFFFFFFF41
:080FB80001000000006CDC02E6
:040000030000010DEB
:00000001FF
